{
  "contractName": "PaymentManager",
  "abi": [
    {
      "anonymous": false,
      "inputs": [
        {
          "indexed": true,
          "internalType": "address",
          "name": "previousOwner",
          "type": "address"
        },
        {
          "indexed": true,
          "internalType": "address",
          "name": "newOwner",
          "type": "address"
        }
      ],
      "name": "OwnershipTransferred",
      "type": "event"
    },
    {
      "anonymous": false,
      "inputs": [
        {
          "indexed": false,
          "internalType": "uint256",
          "name": "index",
          "type": "uint256"
        }
      ],
      "name": "Paid",
      "type": "event"
    },
    {
      "anonymous": false,
      "inputs": [
        {
          "indexed": false,
          "internalType": "uint256",
          "name": "index",
          "type": "uint256"
        }
      ],
      "name": "Refunded",
      "type": "event"
    },
    {
      "inputs": [],
      "name": "owner",
      "outputs": [
        {
          "internalType": "address",
          "name": "",
          "type": "address"
        }
      ],
      "stateMutability": "view",
      "type": "function"
    },
    {
      "inputs": [
        {
          "internalType": "address",
          "name": "",
          "type": "address"
        },
        {
          "internalType": "uint256",
          "name": "",
          "type": "uint256"
        }
      ],
      "name": "payerPayments",
      "outputs": [
        {
          "internalType": "uint256",
          "name": "",
          "type": "uint256"
        }
      ],
      "stateMutability": "view",
      "type": "function"
    },
    {
      "inputs": [
        {
          "internalType": "uint256",
          "name": "",
          "type": "uint256"
        }
      ],
      "name": "payments",
      "outputs": [
        {
          "internalType": "enum PaymentManager.Status",
          "name": "status",
          "type": "uint8"
        },
        {
          "internalType": "address",
          "name": "tokenIn",
          "type": "address"
        },
        {
          "internalType": "uint256",
          "name": "amountIn",
          "type": "uint256"
        },
        {
          "internalType": "address",
          "name": "tokenOut",
          "type": "address"
        },
        {
          "internalType": "uint256",
          "name": "amountOut",
          "type": "uint256"
        },
        {
          "internalType": "address",
          "name": "payer",
          "type": "address"
        },
        {
          "internalType": "bool",
          "name": "isEther",
          "type": "bool"
        },
        {
          "internalType": "string",
          "name": "attachment",
          "type": "string"
        }
      ],
      "stateMutability": "view",
      "type": "function"
    },
    {
      "inputs": [],
      "name": "renounceOwnership",
      "outputs": [],
      "stateMutability": "nonpayable",
      "type": "function"
    },
    {
      "inputs": [],
      "name": "stableCoin",
      "outputs": [
        {
          "internalType": "contract IERC20",
          "name": "",
          "type": "address"
        }
      ],
      "stateMutability": "view",
      "type": "function"
    },
    {
      "inputs": [
        {
          "internalType": "bytes4",
          "name": "interfaceId",
          "type": "bytes4"
        }
      ],
      "name": "supportsInterface",
      "outputs": [
        {
          "internalType": "bool",
          "name": "",
          "type": "bool"
        }
      ],
      "stateMutability": "view",
      "type": "function"
    },
    {
      "inputs": [
        {
          "internalType": "address",
          "name": "newOwner",
          "type": "address"
        }
      ],
      "name": "transferOwnership",
      "outputs": [],
      "stateMutability": "nonpayable",
      "type": "function"
    },
    {
      "inputs": [],
      "name": "uniswap",
      "outputs": [
        {
          "internalType": "contract IUniswapV2Router02",
          "name": "",
          "type": "address"
        }
      ],
      "stateMutability": "view",
      "type": "function"
    },
    {
      "inputs": [
        {
          "internalType": "address",
          "name": "_owner",
          "type": "address"
        },
        {
          "internalType": "contract IUniswapV2Router02",
          "name": "_uniswap",
          "type": "address"
        },
        {
          "internalType": "contract IERC20",
          "name": "_stableCoin",
          "type": "address"
        }
      ],
      "name": "initialize",
      "outputs": [],
      "stateMutability": "nonpayable",
      "type": "function"
    },
    {
      "inputs": [
        {
          "internalType": "uint256",
          "name": "amountOut",
          "type": "uint256"
        },
        {
          "internalType": "address",
          "name": "tokenIn",
          "type": "address"
        }
      ],
      "name": "getAmountIn",
      "outputs": [
        {
          "internalType": "uint256",
          "name": "amount",
          "type": "uint256"
        }
      ],
      "stateMutability": "view",
      "type": "function"
    },
    {
      "inputs": [
        {
          "internalType": "uint256",
          "name": "amountOut",
          "type": "uint256"
        },
        {
          "internalType": "uint256",
          "name": "amountIn",
          "type": "uint256"
        },
        {
          "internalType": "contract IERC20",
          "name": "tokenIn",
          "type": "address"
        },
        {
          "internalType": "uint256",
          "name": "deadline",
          "type": "uint256"
        },
        {
          "internalType": "string",
          "name": "attachment",
          "type": "string"
        }
      ],
      "name": "pay",
      "outputs": [],
      "stateMutability": "nonpayable",
      "type": "function"
    },
    {
      "inputs": [
        {
          "internalType": "uint256",
          "name": "amountOut",
          "type": "uint256"
        },
        {
          "internalType": "uint256",
          "name": "deadline",
          "type": "uint256"
        },
        {
          "internalType": "string",
          "name": "attachment",
          "type": "string"
        }
      ],
      "name": "payEth",
      "outputs": [],
      "stateMutability": "payable",
      "type": "function"
    },
    {
      "inputs": [
        {
          "internalType": "uint256",
          "name": "index",
          "type": "uint256"
        },
        {
          "internalType": "bool",
          "name": "refundStableCoin",
          "type": "bool"
        }
      ],
      "name": "refund",
      "outputs": [],
      "stateMutability": "nonpayable",
      "type": "function"
    },
    {
      "inputs": [
        {
          "internalType": "uint256",
          "name": "amount",
          "type": "uint256"
        },
        {
          "internalType": "address",
          "name": "to",
          "type": "address"
        }
      ],
      "name": "withdraw",
      "outputs": [],
      "stateMutability": "nonpayable",
      "type": "function"
    }
  ],
  "bytecode": "0x608060405261001d6301ffc9a760e01b6001600160e01b0361008316565b60006100306001600160e01b0361010716565b600180546001600160a01b0319166001600160a01b038316908117909155604051919250906000907f8be0079c531659141344cd1fd0a4f28419497f9722a3daafe3b4186f6b6457e0908290a35061010b565b6001600160e01b031980821614156100e2576040805162461bcd60e51b815260206004820152601c60248201527f4552433136353a20696e76616c696420696e7465726661636520696400000000604482015290519081900360640190fd5b6001600160e01b0319166000908152602081905260409020805460ff19166001179055565b3390565b611e6b8061011a6000396000f3fe6080604052600436106100dc5760003560e01c8063715018a61161007f578063992642e511610059578063992642e51461040a578063b806b1ca1461041f578063c0c53b8b146104bb578063f2fde38b14610500576100dc565b8063715018a6146102c557806387d81789146102da5780638da5cb5b146103f5576100dc565b80630d14f0dd116100bb5780630d14f0dd146101de5780631125f13f146102295780632681f7e4146102625780636c9c527014610293576100dc565b8062f714ce146100e157806301ffc9a71461011c5780630c9cc20414610164575b600080fd5b3480156100ed57600080fd5b5061011a6004803603604081101561010457600080fd5b50803590602001356001600160a01b0316610533565b005b34801561012857600080fd5b506101506004803603602081101561013f57600080fd5b50356001600160e01b031916610720565b604080519115158252519081900360200190f35b61011a6004803603606081101561017a57600080fd5b813591602081013591810190606081016040820135600160201b8111156101a057600080fd5b8201836020820111156101b257600080fd5b803590602001918460018302840111600160201b831117156101d357600080fd5b50909250905061073f565b3480156101ea57600080fd5b506102176004803603604081101561020157600080fd5b506001600160a01b0381351690602001356109e6565b60408051918252519081900360200190f35b34801561023557600080fd5b506102176004803603604081101561024c57600080fd5b50803590602001356001600160a01b0316610a14565b34801561026e57600080fd5b50610277610ba7565b604080516001600160a01b039092168252519081900360200190f35b34801561029f57600080fd5b5061011a600480360360408110156102b657600080fd5b50803590602001351515610bb6565b3480156102d157600080fd5b5061011a61126a565b3480156102e657600080fd5b50610304600480360360208110156102fd57600080fd5b503561131e565b6040518089600181111561031457fe5b60ff168152602001886001600160a01b03166001600160a01b03168152602001878152602001866001600160a01b03166001600160a01b03168152602001858152602001846001600160a01b03166001600160a01b031681526020018315151515815260200180602001828103825283818151815260200191508051906020019080838360005b838110156103b357818101518382015260200161039b565b50505050905090810190601f1680156103e05780820380516001836020036101000a031916815260200191505b50995050505050505050505060405180910390f35b34801561040157600080fd5b50610277611410565b34801561041657600080fd5b50610277611420565b34801561042b57600080fd5b5061011a600480360360a081101561044257600080fd5b8135916020810135916001600160a01b036040830135169160608101359181019060a081016080820135600160201b81111561047d57600080fd5b82018360208201111561048f57600080fd5b803590602001918460018302840111600160201b831117156104b057600080fd5b50909250905061142f565b3480156104c757600080fd5b5061011a600480360360608110156104de57600080fd5b506001600160a01b038135811691602081013582169160409091013516611645565b34801561050c57600080fd5b5061011a6004803603602081101561052357600080fd5b50356001600160a01b0316611742565b61053b61184d565b6001546001600160a01b0390811691161461059d576040805162461bcd60e51b815260206004820181905260248201527f4f776e61626c653a2063616c6c6572206973206e6f7420746865206f776e6572604482015290519081900360640190fd5b600354604080516370a0823160e01b8152306004820152905184926001600160a01b0316916370a08231916024808301926020929190829003018186803b1580156105e757600080fd5b505afa1580156105fb573d6000803e3d6000fd5b505050506040513d602081101561061157600080fd5b5051101561065f576040805162461bcd60e51b8152602060048201526016602482015275504d3a20496e73756666696369656e742066756e647360501b604482015290519081900360640190fd5b6003546040805163a9059cbb60e01b81526001600160a01b038481166004830152602482018690529151919092169163a9059cbb9160448083019260209291908290030181600087803b1580156106b557600080fd5b505af11580156106c9573d6000803e3d6000fd5b505050506040513d60208110156106df57600080fd5b505161071c5760405162461bcd60e51b8152600401808060200182810382526026815260200180611deb6026913960400191505060405180910390fd5b5050565b6001600160e01b03191660009081526020819052604090205460ff1690565b600254604080516315ab88c960e31b815290516000926001600160a01b03169163ad5c4648916004808301926020929190829003018186803b15801561078457600080fd5b505afa158015610798573d6000803e3d6000fd5b505050506040513d60208110156107ae57600080fd5b50519050346107bd8683610a14565b1115610810576040805162461bcd60e51b815260206004820152601c60248201527f504d3a20457374696d6174696f6e2068617320696e6372656173656400000000604482015290519081900360640190fd5b610854813487600187878080601f01602080910402602001604051908101604052809392919081815260200183838082843760009201919091525061185192505050565b6002546003546001600160a01b039182169163fb3bdb4191889161087a918691166119f4565b30886040518563ffffffff1660e01b81526004018085815260200180602001846001600160a01b03166001600160a01b03168152602001838152602001828103825285818151815260200191508051906020019060200280838360005b838110156108ef5781810151838201526020016108d7565b5050505090500195505050505050600060405180830381600087803b15801561091757600080fd5b505af115801561092b573d6000803e3d6000fd5b505050506040513d6000823e601f3d908101601f19168201604052602081101561095457600080fd5b8101908080516040519392919084600160201b82111561097357600080fd5b90830190602082018581111561098857600080fd5b82518660208202830111600160201b821117156109a457600080fd5b82525081516020918201928201910280838360005b838110156109d15781810151838201526020016109b9565b50505050905001604052505050505050505050565b600560205281600052604060002081815481106109ff57fe5b90600052602060002001600091509150505481565b600354600090606090610a319084906001600160a01b03166119f4565b600254604080516307c0329d60e21b815260048101888152602482019283528451604483015284519495506001600160a01b0390931693631f00ca74938993879391929091606401906020808601910280838360005b83811015610a9f578181015183820152602001610a87565b50505050905001935050505060006040518083038186803b158015610ac357600080fd5b505afa158015610ad7573d6000803e3d6000fd5b505050506040513d6000823e601f3d908101601f191682016040526020811015610b0057600080fd5b8101908080516040519392919084600160201b821115610b1f57600080fd5b908301906020820185811115610b3457600080fd5b82518660208202830111600160201b82111715610b5057600080fd5b82525081516020918201928201910280838360005b83811015610b7d578181015183820152602001610b65565b50505050905001604052505050600081518110610b9657fe5b602002602001015191505092915050565b6002546001600160a01b031681565b600060048381548110610bc557fe5b6000918252602090912060069091020160048101549091506001600160a01b0316610c2f576040805162461bcd60e51b815260206004820152601560248201527414134e8814185e5b595b9d081b9bdd08199bdd5b99605a1b604482015290519081900360640190fd5b6001815460ff166001811115610c4157fe5b1415610c7e5760405162461bcd60e51b8152600401808060200182810382526025815260200180611d726025913960400191505060405180910390fd5b805460ff191660011781556040805184815290517f3d2a04f53164bedf9a8a46353305d6b2d2261410406df3b41f99ce6489dc003c916020908290030190a18115610d935760038054600480840154928401546040805163a9059cbb60e01b81526001600160a01b0395861693810193909352602483019190915251929091169163a9059cbb916044808201926020929091908290030181600087803b158015610d2757600080fd5b505af1158015610d3b573d6000803e3d6000fd5b505050506040513d6020811015610d5157600080fd5b5051610d8e5760405162461bcd60e51b8152600401808060200182810382526025815260200180611e116025913960400191505060405180910390fd5b611265565b60028101548154606091610db9916001600160a01b0391821691610100909104166119f4565b60025460038401546040805163d06ca61f60e01b815260048101838152602482019283528551604483015285519596506000956001600160a01b039095169463d06ca61f949388939091606490910190602080860191028083838c5b83811015610e2d578181015183820152602001610e15565b50505050905001935050505060006040518083038186803b158015610e5157600080fd5b505afa158015610e65573d6000803e3d6000fd5b505050506040513d6000823e601f3d908101601f191682016040526020811015610e8e57600080fd5b8101908080516040519392919084600160201b821115610ead57600080fd5b908301906020820185811115610ec257600080fd5b82518660208202830111600160201b82111715610ede57600080fd5b82525081516020918201928201910280838360005b83811015610f0b578181015183820152602001610ef3565b50505050905001604052505050600183510381518110610f2757fe5b6020026020010151905060004261a8c00190508360040160149054906101000a900460ff16156110db5760025460038501546004808701546040516318cbafe560e01b8152918201838152602483018790526001600160a01b03918216606484018190526084840187905260a060448501908152895160a4860152895193909616956318cbafe5959489948b948a939092909160c4909101906020808801910280838360005b83811015610fe5578181015183820152602001610fcd565b505050509050019650505050505050600060405180830381600087803b15801561100e57600080fd5b505af1158015611022573d6000803e3d6000fd5b505050506040513d6000823e601f3d908101601f19168201604052602081101561104b57600080fd5b8101908080516040519392919084600160201b82111561106a57600080fd5b90830190602082018581111561107f57600080fd5b82518660208202830111600160201b8211171561109b57600080fd5b82525081516020918201928201910280838360005b838110156110c85781810151838201526020016110b0565b5050505090500160405250505050611261565b60025460038501546004808701546040516338ed173960e01b8152918201838152602483018790526001600160a01b03918216606484018190526084840187905260a060448501908152895160a4860152895193909616956338ed1739959489948b948a939092909160c4909101906020808801910280838360005b8381101561116f578181015183820152602001611157565b505050509050019650505050505050600060405180830381600087803b15801561119857600080fd5b505af11580156111ac573d6000803e3d6000fd5b505050506040513d6000823e601f3d908101601f1916820160405260208110156111d557600080fd5b8101908080516040519392919084600160201b8211156111f457600080fd5b90830190602082018581111561120957600080fd5b82518660208202830111600160201b8211171561122557600080fd5b82525081516020918201928201910280838360005b8381101561125257818101518382015260200161123a565b50505050905001604052505050505b5050505b505050565b61127261184d565b6001546001600160a01b039081169116146112d4576040805162461bcd60e51b815260206004820181905260248201527f4f776e61626c653a2063616c6c6572206973206e6f7420746865206f776e6572604482015290519081900360640190fd5b6001546040516000916001600160a01b0316907f8be0079c531659141344cd1fd0a4f28419497f9722a3daafe3b4186f6b6457e0908390a3600180546001600160a01b0319169055565b6004818154811061132b57fe5b60009182526020918290206006919091020180546001808301546002808501546003860154600487015460058801805460408051610100998316158a026000190190921696909604601f81018c90048c0282018c0190965285815260ff808a169c50979098046001600160a01b039081169a969994811698939790831696600160a01b909304169490918301828280156114065780601f106113db57610100808354040283529160200191611406565b820191906000526020600020905b8154815290600101906020018083116113e957829003601f168201915b5050505050905088565b6001546001600160a01b03165b90565b6003546001600160a01b031681565b60025460408051636eb1769f60e11b81523360048201526001600160a01b0392831660248201529051879287169163dd62ed3e916044808301926020929190829003018186803b15801561148257600080fd5b505afa158015611496573d6000803e3d6000fd5b505050506040513d60208110156114ac57600080fd5b50511015611501576040805162461bcd60e51b815260206004820152601760248201527f504d3a20546f6b656e73206e6f7420617070726f766564000000000000000000604482015290519081900360640190fd5b8461150c8786610a14565b111561155f576040805162461bcd60e51b815260206004820152601c60248201527f504d3a20457374696d6174696f6e2068617320696e6372656173656400000000604482015290519081900360640190fd5b6115a3848688600086868080601f01602080910402602001604051908101604052809392919081815260200183838082843760009201919091525061185192505050565b6002546003546001600160a01b0391821691638803dbee91899189916115cb918a91166119f4565b30886040518663ffffffff1660e01b81526004018086815260200185815260200180602001846001600160a01b03166001600160a01b03168152602001838152602001828103825285818151815260200191508051906020019060200280838360008381101561116f578181015183820152602001611157565b600154600160a81b900460ff16806116605750611660611be4565b806116755750600154600160a01b900460ff16155b6116b05760405162461bcd60e51b815260040180806020018281038252602e815260200180611dbd602e913960400191505060405180910390fd5b600154600160a81b900460ff161580156116e7576001805460ff60a01b1960ff60a81b19909116600160a81b1716600160a01b1790555b6116ef611bea565b6116f884611742565b600280546001600160a01b038086166001600160a01b0319928316179092556003805492851692909116919091179055801561173c576001805460ff60a81b191690555b50505050565b61174a61184d565b6001546001600160a01b039081169116146117ac576040805162461bcd60e51b815260206004820181905260248201527f4f776e61626c653a2063616c6c6572206973206e6f7420746865206f776e6572604482015290519081900360640190fd5b6001600160a01b0381166117f15760405162461bcd60e51b8152600401808060200182810382526026815260200180611d976026913960400191505060405180910390fd5b6001546040516001600160a01b038084169216907f8be0079c531659141344cd1fd0a4f28419497f9722a3daafe3b4186f6b6457e090600090a3600180546001600160a01b0319166001600160a01b0392909216919091179055565b3390565b60045460408051918252517f581d416ae9dff30c9305c2b35cb09ed5991897ab97804db29ccf92678e9531609181900360200190a13360008181526005602090815260408083206004805482546001808201855593875285872001558251610100810184528581526001600160a01b038c8116958201959095529283018a905260035490931660608301526080820188905260a082019490945285151560c082015260e081018590528154808501835591909252815160069091027f8a35acfbc15ff81a39ae7d344fd709f28e8600b4aa8c65c6b64bfe7fe36bd19b01805492939092839160ff1990911690838181111561194857fe5b02179055506020828101518254610100600160a81b0319166101006001600160a01b03928316021783556040840151600184015560608401516002840180546001600160a01b03199081169284169290921790556080850151600385015560a085015160048501805460c08801519316919093161760ff60a01b1916600160a01b9115159190910217905560e083015180516119ea9260058501920190611cbb565b5050505050505050565b60606000600260009054906101000a90046001600160a01b03166001600160a01b031663ad5c46486040518163ffffffff1660e01b815260040160206040518083038186803b158015611a4657600080fd5b505afa158015611a5a573d6000803e3d6000fd5b505050506040513d6020811015611a7057600080fd5b505190506001600160a01b0384811690821614611a8e576003611a91565b60025b60ff1667ffffffffffffffff81118015611aaa57600080fd5b50604051908082528060200260200182016040528015611ad4578160200160208202803683370190505b509150806001600160a01b0316846001600160a01b03161415611b52578382600081518110611aff57fe5b60200260200101906001600160a01b031690816001600160a01b0316815250508282600181518110611b2d57fe5b60200260200101906001600160a01b031690816001600160a01b031681525050611bdd565b8082600081518110611b6057fe5b60200260200101906001600160a01b031690816001600160a01b0316815250508382600181518110611b8e57fe5b60200260200101906001600160a01b031690816001600160a01b0316815250508282600281518110611bbc57fe5b60200260200101906001600160a01b031690816001600160a01b0316815250505b5092915050565b303b1590565b6000611bf4611d39565b50604080516020810190915263a5bf82f160e01b815260005b600181101561126557611c2f828260018110611c2557fe5b6020020151611c37565b600101611c0d565b6001600160e01b03198082161415611c96576040805162461bcd60e51b815260206004820152601c60248201527f4552433136353a20696e76616c696420696e7465726661636520696400000000604482015290519081900360640190fd5b6001600160e01b0319166000908152602081905260409020805460ff19166001179055565b828054600181600116156101000203166002900490600052602060002090601f016020900481019282601f10611cfc57805160ff1916838001178555611d29565b82800160010185558215611d29579182015b82811115611d29578251825591602001919060010190611d0e565b50611d35929150611d57565b5090565b60405180602001604052806001906020820280368337509192915050565b61141d91905b80821115611d355760008155600101611d5d56fe504d3a205061796d656e742068617320616c7265616479206265656e20726566756e6465644f776e61626c653a206e6577206f776e657220697320746865207a65726f2061646472657373496e697469616c697a61626c653a20636f6e747261637420697320616c726561647920696e697469616c697a6564504d3a20556e61626c6520746f207472616e736665722077697468647261776e2066756e6473504d3a20556e61626c6520746f207472616e7366657220726566756e6465642066756e6473a264697066735822122077157f2fbbc08ef9c30440c237fae0be38d9accec608f5a2eaeb4e8c69dcd6ab64736f6c63430006060033",
  "immutableReferences": {},
  "source": "// SPDX-License-Identifier: GPL-3.0-only;\n\npragma solidity 0.6.6;\n\nimport \"./PaymentManagerInterface.sol\";\nimport \"@windingtree/smart-contracts-libraries/contracts/ERC165/ERC165Removable.sol\";\nimport \"@openzeppelin/contracts/access/Ownable.sol\";\nimport \"@openzeppelin/contracts/proxy/Initializable.sol\";\nimport \"@openzeppelin/contracts/token/ERC20/IERC20.sol\";\nimport \"@uniswap/v2-periphery/contracts/interfaces/IUniswapV2Router02.sol\";\n\n\n/**\n * @title PaymentManager\n * @dev Payment manager class.\n * Allowing pay in tokens which will be automatically converted\n * to the pre-defined stable coin using Uniswap exchange\n */\ncontract PaymentManager is PaymentManagerInterface, ERC165Removable, Ownable, Initializable {\n\n  enum Status {\n    Paid,\n    Refunded\n  }\n\n  struct Payment {\n    Status status;\n    address tokenIn; // Address of the token paid by payer (WETH address in case of native ETH)\n    uint256 amountIn; // Amount paid by the payer in tokens\n    address tokenOut; // Address of the target token (actually it is a stableCoin)\n    uint256 amountOut; // Amount paid by the payer in target tokens\n    address payer; // Address of the payer\n    bool isEther; // Is payer has paid with ETH\n    string attachment; // Textual attachment (eq: offerId, orderId, or URI)\n  }\n\n  IUniswapV2Router02 public uniswap; // Uniswap instance\n  IERC20 public stableCoin; // Stable coin instance\n  Payment[] public payments; // All payments list\n  mapping(address => uint256[]) public payerPayments; // Mapping of the payer address to his payments\n\n  /**\n   * @dev The event triggered when payment is done\n   * @param index Payment index\n   */\n  event Paid(uint256 index);\n\n  /**\n   * @dev The event triggered when payment is refunded\n   * @param index Payment index\n   */\n  event Refunded(uint256 index);\n\n  /**\n   *  @dev Initializer for upgradeable contracts.\n   *  @param _owner The trusted owner of this contract.\n   */\n  function initialize(\n    address _owner,\n    IUniswapV2Router02 _uniswap,\n    IERC20 _stableCoin\n  ) public initializer {\n    _setInterfaces();\n    transferOwnership(_owner);\n    uniswap = _uniswap;\n    stableCoin = _stableCoin;\n  }\n\n  /**\n   * @dev Calculates the required amount of tokens to be paid\n   * @param amountOut Amount to be paid in stable coins\n   * @param tokenIn The token provided by the payer\n   * @return amount Amount of payers tokens that should be provided for payment\n   */\n  function getAmountIn(\n    uint256 amountOut,\n    address tokenIn\n  ) public view virtual override returns (uint256 amount) {\n    address[] memory path = _buildPath(tokenIn, address(stableCoin));\n    amount = uniswap.getAmountsIn(amountOut, path)[0];\n  }\n\n  /**\n   * @dev Make payment with tokens\n   * @param amountOut Amount to be paid in stable coins\n   * @param amountIn Amount to pay in payer tokens\n   * @param tokenIn The token provided by the payer\n   * @param deadline Time after which transaction will be reverted if not succeeded\n   * @param attachment Textual attachment to the payment\n   */\n  function pay(\n    uint256 amountOut,\n    uint256 amountIn,\n    IERC20 tokenIn,\n    uint256 deadline,\n    string calldata attachment\n  ) external virtual override {\n    require(\n      tokenIn.allowance(msg.sender, address(uniswap)) >= amountIn,\n      \"PM: Tokens not approved\"\n    );\n    require(\n      getAmountIn(amountOut, address(tokenIn)) <= amountIn,\n      \"PM: Estimation has increased\"\n    );\n\n    _registerPayment(\n      address(tokenIn),\n      amountIn,\n      amountOut,\n      false,\n      attachment\n    );\n\n    uniswap.swapTokensForExactTokens(\n      amountOut,\n      amountIn,\n      _buildPath(address(tokenIn), address(stableCoin)),\n      address(this),\n      deadline\n    );\n  }\n\n  /**\n   * @dev Make payment with Ether\n   * @param amountOut Amount to be paid in stable coins\n   * @param deadline Time after which transaction will be reverted if not succeeded\n   * @param attachment Textual attachment to the payment\n   */\n  function payEth(\n    uint256 amountOut,\n    uint256 deadline,\n    string calldata attachment\n  ) external virtual override payable {\n    address weth = uniswap.WETH();\n\n    require(\n      getAmountIn(amountOut, weth) <= msg.value,\n      \"PM: Estimation has increased\"\n    );\n\n    _registerPayment(\n      weth,\n      msg.value,\n      amountOut,\n      true,\n      attachment\n    );\n\n    uniswap.swapETHForExactTokens(\n      amountOut,\n      _buildPath(weth, address(stableCoin)),\n      address(this),\n      deadline\n    );\n  }\n\n  /**\n   * @dev Make payment refund\n   * @param index Index of the payment\n   * @param refundStableCoin A flag which allows refunding in stable coins\n   */\n  function refund(\n    uint256 index,\n    bool refundStableCoin\n  ) external virtual override {\n    Payment storage payment = payments[index];\n\n    require(\n      payment.payer != address(0),\n      \"PM: Payment not found\"\n    );\n    require(\n      payment.status != Status.Refunded,\n      \"PM: Payment has already been refunded\"\n    );\n\n    payment.status = Status.Refunded;\n    emit Refunded(index);\n\n    if (refundStableCoin) {\n      require(\n        stableCoin.transfer(payment.payer, payment.amountOut),\n        \"PM: Unable to transfer refunded funds\"\n      );\n    } else {\n      address[] memory path = _buildPath(payment.tokenOut, payment.tokenIn);\n      uint256 refundAmountMin = uniswap.getAmountsOut(\n        payment.amountOut,\n        path\n      )[path.length - 1]; // The last path position\n      uint256 deadline = block.timestamp + 43200; // @todo How to calculate this deadline? Currently just adds 12 hours\n\n      if (payment.isEther) {\n        uniswap.swapExactTokensForETH(\n          payment.amountOut,\n          refundAmountMin,\n          path,\n          payment.payer,\n          deadline\n        );\n      } else {\n        uniswap.swapExactTokensForTokens(\n          payment.amountOut,\n          refundAmountMin,\n          path,\n          payment.payer,\n          deadline\n        );\n      }\n    }\n  }\n\n  /**\n   * @dev Make funds withdrawal\n   * @param amount Amount of stable coins to withdraw\n   * @param to Recipient address\n   */\n  function withdraw(\n    uint256 amount,\n    address to\n  ) external virtual override onlyOwner {\n    require(\n      stableCoin.balanceOf(address(this)) >= amount,\n      \"PM: Insufficient funds\"\n    );\n    require(\n      stableCoin.transfer(to, amount),\n      \"PM: Unable to transfer withdrawn funds\"\n    );\n  }\n\n  /**\n   * @dev Registering of payment and emits an event\n   * @param tokenIn An address of the token to start from\n   * @param amountIn Amount of payers tokens\n   * @param amountOut Amount of stable coins to be paid\n   * @param isEther Is payer pays by the Ether\n   * @param attachment Textual attachment to the payment\n   */\n  function _registerPayment(\n    address tokenIn,\n    uint256 amountIn,\n    uint256 amountOut,\n    bool isEther,\n    string memory attachment\n  ) internal {\n    emit Paid(payments.length);\n    payerPayments[msg.sender].push(payments.length);\n    payments.push(Payment(\n      Status.Paid,\n      tokenIn,\n      amountIn,\n      address(stableCoin),\n      amountOut,\n      msg.sender,\n      isEther,\n      attachment\n    ));\n  }\n\n  /**\n   * @dev Building an exchange path\n   * @param tokenIn An address of the token to start from\n   * @param tokenOut An address of the target token\n   * @return path Exchange path\n   */\n  function _buildPath(\n    address tokenIn,\n    address tokenOut\n  ) internal view returns (address[] memory path) {\n    address weth = uniswap.WETH();\n    path = new address[](tokenIn == weth ? 2 : 3);\n\n    if (tokenIn == weth) {\n      path[0] = tokenIn;\n      path[1] = tokenOut;\n    } else {\n      path[0] = weth;\n      path[1] = tokenIn;\n      path[2] = tokenOut;\n    }\n  }\n\n  /**\n   * @dev Set the list of contract interfaces supported\n   */\n  function _setInterfaces() internal {\n    PaymentManagerInterface p;\n    bytes4[1] memory interfaceIds = [\n      // payment interface:\n      p.getAmountIn.selector ^\n      p.pay.selector ^\n      p.payEth.selector\n    ];\n\n    for (uint256 i = 0; i < interfaceIds.length; i++) {\n      _registerInterface(interfaceIds[i]);\n    }\n  }\n}\n",
  "sourcePath": "/home/kostysh/dev/payment-manager-remote/contracts/PaymentManager.sol",
  "compiler": {
    "name": "solc",
    "version": "0.6.6+commit.6c089d02.Emscripten.clang"
  },
  "schemaVersion": "3.3.2",
  "updatedAt": "2020-11-13T02:02:44.451Z",
  "devdoc": {
    "details": "Payment manager class. Allowing pay in tokens which will be automatically converted to the pre-defined stable coin using Uniswap exchange",
    "methods": {
      "getAmountIn(uint256,address)": {
        "details": "Calculates the required amount of tokens to be paid",
        "params": {
          "amountOut": "Amount to be paid in stable coins",
          "tokenIn": "The token provided by the payer"
        },
        "returns": {
          "amount": "Amount of payers tokens that should be provided for payment"
        }
      },
      "initialize(address,address,address)": {
        "details": "Initializer for upgradeable contracts.",
        "params": {
          "_owner": "The trusted owner of this contract."
        }
      },
      "owner()": {
        "details": "Returns the address of the current owner."
      },
      "pay(uint256,uint256,address,uint256,string)": {
        "details": "Make payment with tokens",
        "params": {
          "amountIn": "Amount to pay in payer tokens",
          "amountOut": "Amount to be paid in stable coins",
          "attachment": "Textual attachment to the payment",
          "deadline": "Time after which transaction will be reverted if not succeeded",
          "tokenIn": "The token provided by the payer"
        }
      },
      "payEth(uint256,uint256,string)": {
        "details": "Make payment with Ether",
        "params": {
          "amountOut": "Amount to be paid in stable coins",
          "attachment": "Textual attachment to the payment",
          "deadline": "Time after which transaction will be reverted if not succeeded"
        }
      },
      "refund(uint256,bool)": {
        "details": "Make payment refund",
        "params": {
          "index": "Index of the payment",
          "refundStableCoin": "A flag which allows refunding in stable coins"
        }
      },
      "renounceOwnership()": {
        "details": "Leaves the contract without owner. It will not be possible to call `onlyOwner` functions anymore. Can only be called by the current owner.     * NOTE: Renouncing ownership will leave the contract without an owner, thereby removing any functionality that is only available to the owner."
      },
      "supportsInterface(bytes4)": {
        "details": "See {IERC165-supportsInterface}.    * Time complexity O(1), guaranteed to always use less than 30 000 gas."
      },
      "transferOwnership(address)": {
        "details": "Transfers ownership of the contract to a new account (`newOwner`). Can only be called by the current owner."
      },
      "withdraw(uint256,address)": {
        "details": "Make funds withdrawal",
        "params": {
          "amount": "Amount of stable coins to withdraw",
          "to": "Recipient address"
        }
      }
    },
    "title": "PaymentManager"
  },
  "userdoc": {
    "methods": {}
  }
}