{
  "fileName": "PaymentManager.sol",
  "contractName": "PaymentManager",
  "source": "// SPDX-License-Identifier: GPL-3.0-only;\n\npragma solidity 0.6.6;\n\nimport \"./PaymentManagerInterface.sol\";\nimport \"@windingtree/smart-contracts-libraries/contracts/ERC165/ERC165Removable.sol\";\nimport \"./OrgIdInterface.sol\";\nimport \"@openzeppelin/contracts/proxy/Initializable.sol\";\nimport \"@openzeppelin/contracts/token/ERC20/IERC20.sol\";\nimport \"@openzeppelin/contracts/math/SafeMath.sol\";\nimport \"@uniswap/v2-periphery/contracts/interfaces/IUniswapV2Router02.sol\";\n\n\n/**\n * @title PaymentManager\n * @dev Payment manager class.\n * Allowing pay in tokens which will be automatically converted\n * to the pre-defined stablecoin using Uniswap exchange\n */\ncontract PaymentManager is PaymentManagerInterface, ERC165Removable, Initializable {\n  using SafeMath for uint256;\n\n  enum Status {\n    Paid,\n    Refunded\n  }\n\n  struct Payment {\n    Status status;\n    address tokenIn; // Address of the token paid by payer (WETH address in case of native ETH)\n    uint256 amountIn; // Amount paid by the payer in tokens\n    address tokenOut; // Address of the target token (actually it is a stableCoin)\n    uint256 amountOut; // Amount paid by the payer in target tokens\n    address payer; // Address of the payer\n    bytes32 merchant; // ORGiD of the merchant\n    bool isEther; // Is payer has paid with ETH\n    string attachment; // Textual attachment (eq: offerId, orderId, or URI)\n  }\n\n  OrgIdInterface orgId; // OrgId instance\n  IUniswapV2Router02 public uniswap; // Uniswap instance\n  IERC20 public stableCoin; // Stable coin instance\n  address public manager;\n  address public wallet; // Payments manager account\n  Payment[] public payments; // All payments list\n  mapping(address => uint256[]) public payerPayments; // Mapping of the payer address to his payments\n\n  /**\n   * @dev Throws if called by any account other than the manager.\n   */\n  modifier onlyManager() {\n      require(manager == msg.sender, \"PM: Caller is not the manager\");\n      _;\n  }\n\n  modifier withMerchant(bytes32 merchant) {\n    (\n      bool exists,,,,,,,,, bool isActive,\n    ) = orgId.getOrganization(merchant);\n    require(\n      exists && isActive,\n      \"PM: Merchant organization not exists or disabled\"\n    );\n    _;\n  }\n\n  /**\n   * @dev Initializer for upgradeable contracts.\n   * @param _manager The trusted manager of this contract\n   * @param _uniswap Uniswap router instance\n   * @param _stableCoin Base stablecoin token instance\n   * @param _wallet Payments manager account\n   * @param _orgId An instance of the OrgId\n   */\n  function initialize(\n    address _manager,\n    IUniswapV2Router02 _uniswap,\n    IERC20 _stableCoin,\n    address _wallet,\n    OrgIdInterface _orgId\n  )\n    public\n    initializer\n  {\n    _setInterfaces();\n    manager = _manager;\n    uniswap = _uniswap;\n    stableCoin = _stableCoin;\n    wallet = _wallet;\n    orgId = _orgId;\n  }\n\n  /**\n   * @dev Changes the ORGiD instance\n   * @param _orgId The manager address\n   */\n  function changeOrgId(OrgIdInterface _orgId)\n    external\n    override\n    onlyManager\n  {\n    orgId = _orgId;\n  }\n\n  /**\n   * @dev Changes the manager of the contract\n   * @param _manager The manager address\n   */\n  function changeManager(address _manager)\n    external\n    override\n    onlyManager\n  {\n    manager = _manager;\n  }\n\n  /**\n   * @dev Changes the Uniswap router instance\n   * @param _uniswap Uniswap router instance\n   */\n  function changeUniswap(IUniswapV2Router02 _uniswap)\n    external\n    override\n    onlyManager\n  {\n    uniswap = _uniswap;\n  }\n\n  /**\n   * @dev Changes the manager wallet address\n   * @param _wallet Manager wallet address\n   */\n  function changeWallet(address _wallet)\n    external\n    override\n    onlyManager\n  {\n    wallet = _wallet;\n  }\n\n  /**\n   * @dev Calculates the required amount of tokens to be paid\n   * @param amountOut Amount to be paid in stablecoins\n   * @param tokenIn The token provided by the payer\n   * @return amount Amount of payers tokens that should be provided for payment\n   */\n  function getAmountIn(\n    uint256 amountOut,\n    address tokenIn\n  )\n    public\n    view\n    virtual\n    override\n    returns (uint256 amount)\n  {\n    if (address(tokenIn) == address(stableCoin)) {\n      return amountOut;\n    } else {\n      address[] memory path = _buildPath(tokenIn, address(stableCoin));\n      amount = uniswap.getAmountsIn(amountOut, path)[0];\n    }\n  }\n\n  /**\n   * @dev Make payment with tokens\n   * @param amountOut Amount to be paid in stablecoins\n   * @param amountIn Amount to pay in payer tokens\n   * @param tokenIn The token provided by the payer\n   * @param deadline Time after which transaction will be reverted if not succeeded\n   * @param attachment Textual attachment to the payment\n   * @param merchant The ORGiD of the merchant organization\n   */\n  function pay(\n    uint256 amountOut,\n    uint256 amountIn,\n    IERC20 tokenIn,\n    uint256 deadline,\n    string calldata attachment,\n    bytes32 merchant\n  )\n    external\n    virtual\n    override\n    withMerchant(merchant)\n  {\n    require(\n      tokenIn.allowance(msg.sender, address(this)) >= amountIn,\n      \"PM: Tokens not approved\"\n    );\n\n    _registerPayment(\n      address(tokenIn),\n      amountIn,\n      amountOut,\n      false,\n      attachment,\n      merchant\n    );\n\n    if (address(tokenIn) == address(stableCoin)) {\n      require(\n        amountIn == amountOut,\n        \"PM: Amounts not equal\"\n      );\n      require(\n        tokenIn.transferFrom(msg.sender, wallet, amountIn),\n        \"PM: Tokens transfer failed\"\n      );\n    } else {\n      require(\n        getAmountIn(amountOut, address(tokenIn)) <= amountIn,\n        \"PM: Estimation has increased\"\n      );\n      require(\n        tokenIn.transferFrom(msg.sender, address(this), amountIn),\n        \"PM: Transfer of tokens failed\"\n      );\n\n      tokenIn.approve(address(uniswap), amountIn);\n      uint256[] memory amounts = uniswap.swapTokensForExactTokens(\n        amountOut,\n        amountIn,\n        _buildPath(address(tokenIn), address(stableCoin)),\n        wallet,\n        deadline\n      );\n\n      uint256 restTokensIn = amountIn.sub(amounts[0]);\n\n      // Send rest of tokens back\n      if (restTokensIn > 0) {\n        require(\n          tokenIn.transfer(msg.sender, restTokensIn),\n          \"PM: Tokens transfer failed\"\n        );\n      }\n    }\n  }\n\n  /**\n   * @dev Make payment with Ether\n   * @param amountOut Amount to be paid in stablecoins\n   * @param deadline Time after which transaction will be reverted if not succeeded\n   * @param attachment Textual attachment to the payment\n   * @param merchant The ORGiD of the merchant organization\n   */\n  function payETH(\n    uint256 amountOut,\n    uint256 deadline,\n    string calldata attachment,\n    bytes32 merchant\n  )\n    external\n    virtual\n    override\n    payable\n    withMerchant(merchant)\n  {\n    address weth = uniswap.WETH();\n\n    require(\n      getAmountIn(amountOut, weth) <= msg.value,\n      \"PM: Estimation has increased\"\n    );\n\n    _registerPayment(\n      weth,\n      msg.value,\n      amountOut,\n      true,\n      attachment,\n      merchant\n    );\n\n    uint256[] memory amounts = uniswap.swapETHForExactTokens{value: msg.value}(\n      amountOut,\n      _buildPath(weth, address(stableCoin)),\n      wallet,\n      deadline\n    );\n\n    // Send rest of msg.value back if exists\n    if (msg.value > amounts[0]) {\n      (bool success,) = msg.sender.call{value: msg.value.sub(amounts[0])}(new bytes(0));\n      require(\n        success,\n        \"PM: ETH transfer filed\"\n      );\n    }\n  }\n\n  /**\n   * @dev Make payment refund\n   * @param index Index of the payment\n   * @param refundStableCoin A flag which allows refunding in stablecoins\n   */\n  function refund(\n    uint256 index,\n    bool refundStableCoin\n  )\n    external\n    virtual\n    override\n    onlyManager\n  {\n    Payment storage payment = payments[index];\n\n    require(\n      payment.payer != address(0),\n      \"PM: Payment not found\"\n    );\n    require(\n      payment.status != Status.Refunded,\n      \"PM: Payment has already been refunded\"\n    );\n    require(\n      stableCoin.balanceOf(address(this)) >= payment.amountOut,\n      \"PM: Insufficient funds\"\n    );\n\n    payment.status = Status.Refunded;\n    emit Refunded(index);\n\n    if (refundStableCoin || payment.tokenIn == address(stableCoin)) {\n      require(\n        stableCoin.transfer(payment.payer, payment.amountOut),\n        \"PM: Unable to transfer refunded funds\"\n      );\n    } else {\n      address[] memory path = _buildPath(payment.tokenOut, payment.tokenIn);\n      uint256 refundAmountMin = uniswap.getAmountsOut(\n        payment.amountOut,\n        path\n      )[path.length - 1]; // The last path position\n      uint256 deadline = block.timestamp + 1800; // +30 min\n      stableCoin.approve(address(uniswap), payment.amountOut);\n\n      if (payment.isEther) {\n        uniswap.swapExactTokensForETH(\n          payment.amountOut,\n          refundAmountMin,\n          path,\n          payment.payer,\n          deadline\n        );\n      } else {\n        uniswap.swapExactTokensForTokens(\n          payment.amountOut,\n          refundAmountMin,\n          path,\n          payment.payer,\n          deadline\n        );\n      }\n    }\n  }\n\n  /**\n   * @dev Returns total count of payments\n   * @return uint256\n   */\n  function getPaymentsCount()\n    public\n    view\n    virtual\n    override\n    returns (uint256)\n  {\n    return payments.length;\n  }\n\n  /**\n   * @dev Registering of payment and emits an event\n   * @param tokenIn An address of the token to start from\n   * @param amountIn Amount of payers tokens\n   * @param amountOut Amount of stablecoins to be paid\n   * @param isEther Is payer pays by the Ether\n   * @param attachment Textual attachment to the payment\n   * @param merchant The ORGiD of the merchant organization\n   */\n  function _registerPayment(\n    address tokenIn,\n    uint256 amountIn,\n    uint256 amountOut,\n    bool isEther,\n    string memory attachment,\n    bytes32 merchant\n  ) internal {\n    emit Paid(payments.length);\n    payerPayments[msg.sender].push(payments.length);\n    payments.push(Payment(\n      Status.Paid,\n      tokenIn,\n      amountIn,\n      address(stableCoin),\n      amountOut,\n      msg.sender,\n      merchant,\n      isEther,\n      attachment\n    ));\n  }\n\n  /**\n   * @dev Building an exchange path\n   * @param tokenIn An address of the token to start from\n   * @param tokenOut An address of the target token\n   * @return path Exchange path\n   */\n  function _buildPath(\n    address tokenIn,\n    address tokenOut\n  )\n    internal\n    view\n    returns (address[] memory path)\n  {\n    address weth = uniswap.WETH();\n    path = new address[](tokenIn == weth || tokenOut == weth ? 2 : 3);\n\n    if (tokenIn == weth) {\n      path[0] = tokenIn;\n      path[1] = tokenOut;\n    } else if (tokenOut == weth) {\n      path[0] = tokenIn;\n      path[1] = tokenOut;\n    } else {\n      path[0] = tokenIn;\n      path[1] = weth;\n      path[2] = tokenOut;\n    }\n  }\n\n  /**\n   * @dev Set the list of contract interfaces supported\n   */\n  function _setInterfaces() internal {\n    PaymentManagerInterface p;\n    bytes4[1] memory interfaceIds = [\n      // payment interface:\n      p.changeOrgId.selector ^\n      p.changeManager.selector ^\n      p.changeUniswap.selector ^\n      p.changeWallet.selector ^\n      p.getAmountIn.selector ^\n      p.pay.selector ^\n      p.payETH.selector ^\n      p.refund.selector\n    ];\n\n    for (uint256 i = 0; i < interfaceIds.length; i++) {\n      _registerInterface(interfaceIds[i]);\n    }\n  }\n}\n",
  "sourcePath": "contracts/PaymentManager.sol",
  "abi": [
    {
      "anonymous": false,
      "inputs": [
        {
          "indexed": false,
          "internalType": "uint256",
          "name": "index",
          "type": "uint256"
        }
      ],
      "name": "Paid",
      "type": "event"
    },
    {
      "anonymous": false,
      "inputs": [
        {
          "indexed": false,
          "internalType": "uint256",
          "name": "index",
          "type": "uint256"
        }
      ],
      "name": "Refunded",
      "type": "event"
    },
    {
      "inputs": [
        {
          "internalType": "address",
          "name": "_manager",
          "type": "address"
        }
      ],
      "name": "changeManager",
      "outputs": [],
      "stateMutability": "nonpayable",
      "type": "function"
    },
    {
      "inputs": [
        {
          "internalType": "contract OrgIdInterface",
          "name": "_orgId",
          "type": "address"
        }
      ],
      "name": "changeOrgId",
      "outputs": [],
      "stateMutability": "nonpayable",
      "type": "function"
    },
    {
      "inputs": [
        {
          "internalType": "contract IUniswapV2Router02",
          "name": "_uniswap",
          "type": "address"
        }
      ],
      "name": "changeUniswap",
      "outputs": [],
      "stateMutability": "nonpayable",
      "type": "function"
    },
    {
      "inputs": [
        {
          "internalType": "address",
          "name": "_wallet",
          "type": "address"
        }
      ],
      "name": "changeWallet",
      "outputs": [],
      "stateMutability": "nonpayable",
      "type": "function"
    },
    {
      "inputs": [
        {
          "internalType": "uint256",
          "name": "amountOut",
          "type": "uint256"
        },
        {
          "internalType": "address",
          "name": "tokenIn",
          "type": "address"
        }
      ],
      "name": "getAmountIn",
      "outputs": [
        {
          "internalType": "uint256",
          "name": "amount",
          "type": "uint256"
        }
      ],
      "stateMutability": "view",
      "type": "function"
    },
    {
      "inputs": [],
      "name": "getPaymentsCount",
      "outputs": [
        {
          "internalType": "uint256",
          "name": "",
          "type": "uint256"
        }
      ],
      "stateMutability": "view",
      "type": "function"
    },
    {
      "inputs": [
        {
          "internalType": "address",
          "name": "_manager",
          "type": "address"
        },
        {
          "internalType": "contract IUniswapV2Router02",
          "name": "_uniswap",
          "type": "address"
        },
        {
          "internalType": "contract IERC20",
          "name": "_stableCoin",
          "type": "address"
        },
        {
          "internalType": "address",
          "name": "_wallet",
          "type": "address"
        },
        {
          "internalType": "contract OrgIdInterface",
          "name": "_orgId",
          "type": "address"
        }
      ],
      "name": "initialize",
      "outputs": [],
      "stateMutability": "nonpayable",
      "type": "function"
    },
    {
      "inputs": [],
      "name": "manager",
      "outputs": [
        {
          "internalType": "address",
          "name": "",
          "type": "address"
        }
      ],
      "stateMutability": "view",
      "type": "function"
    },
    {
      "inputs": [
        {
          "internalType": "uint256",
          "name": "amountOut",
          "type": "uint256"
        },
        {
          "internalType": "uint256",
          "name": "amountIn",
          "type": "uint256"
        },
        {
          "internalType": "contract IERC20",
          "name": "tokenIn",
          "type": "address"
        },
        {
          "internalType": "uint256",
          "name": "deadline",
          "type": "uint256"
        },
        {
          "internalType": "string",
          "name": "attachment",
          "type": "string"
        },
        {
          "internalType": "bytes32",
          "name": "merchant",
          "type": "bytes32"
        }
      ],
      "name": "pay",
      "outputs": [],
      "stateMutability": "nonpayable",
      "type": "function"
    },
    {
      "inputs": [
        {
          "internalType": "uint256",
          "name": "amountOut",
          "type": "uint256"
        },
        {
          "internalType": "uint256",
          "name": "deadline",
          "type": "uint256"
        },
        {
          "internalType": "string",
          "name": "attachment",
          "type": "string"
        },
        {
          "internalType": "bytes32",
          "name": "merchant",
          "type": "bytes32"
        }
      ],
      "name": "payETH",
      "outputs": [],
      "stateMutability": "payable",
      "type": "function"
    },
    {
      "inputs": [
        {
          "internalType": "address",
          "name": "",
          "type": "address"
        },
        {
          "internalType": "uint256",
          "name": "",
          "type": "uint256"
        }
      ],
      "name": "payerPayments",
      "outputs": [
        {
          "internalType": "uint256",
          "name": "",
          "type": "uint256"
        }
      ],
      "stateMutability": "view",
      "type": "function"
    },
    {
      "inputs": [
        {
          "internalType": "uint256",
          "name": "",
          "type": "uint256"
        }
      ],
      "name": "payments",
      "outputs": [
        {
          "internalType": "enum PaymentManager.Status",
          "name": "status",
          "type": "uint8"
        },
        {
          "internalType": "address",
          "name": "tokenIn",
          "type": "address"
        },
        {
          "internalType": "uint256",
          "name": "amountIn",
          "type": "uint256"
        },
        {
          "internalType": "address",
          "name": "tokenOut",
          "type": "address"
        },
        {
          "internalType": "uint256",
          "name": "amountOut",
          "type": "uint256"
        },
        {
          "internalType": "address",
          "name": "payer",
          "type": "address"
        },
        {
          "internalType": "bytes32",
          "name": "merchant",
          "type": "bytes32"
        },
        {
          "internalType": "bool",
          "name": "isEther",
          "type": "bool"
        },
        {
          "internalType": "string",
          "name": "attachment",
          "type": "string"
        }
      ],
      "stateMutability": "view",
      "type": "function"
    },
    {
      "inputs": [
        {
          "internalType": "uint256",
          "name": "index",
          "type": "uint256"
        },
        {
          "internalType": "bool",
          "name": "refundStableCoin",
          "type": "bool"
        }
      ],
      "name": "refund",
      "outputs": [],
      "stateMutability": "nonpayable",
      "type": "function"
    },
    {
      "inputs": [],
      "name": "stableCoin",
      "outputs": [
        {
          "internalType": "contract IERC20",
          "name": "",
          "type": "address"
        }
      ],
      "stateMutability": "view",
      "type": "function"
    },
    {
      "inputs": [
        {
          "internalType": "bytes4",
          "name": "interfaceId",
          "type": "bytes4"
        }
      ],
      "name": "supportsInterface",
      "outputs": [
        {
          "internalType": "bool",
          "name": "",
          "type": "bool"
        }
      ],
      "stateMutability": "view",
      "type": "function"
    },
    {
      "inputs": [],
      "name": "uniswap",
      "outputs": [
        {
          "internalType": "contract IUniswapV2Router02",
          "name": "",
          "type": "address"
        }
      ],
      "stateMutability": "view",
      "type": "function"
    },
    {
      "inputs": [],
      "name": "wallet",
      "outputs": [
        {
          "internalType": "address",
          "name": "",
          "type": "address"
        }
      ],
      "stateMutability": "view",
      "type": "function"
    }
  ],
  "bytecode": "0x60806040526100367f01ffc9a7000000000000000000000000000000000000000000000000000000006001600160e01b0361003b16565b610109565b7fffffffff0000000000000000000000000000000000000000000000000000000080821614156100cc57604080517f08c379a000000000000000000000000000000000000000000000000000000000815260206004820152601c60248201527f4552433136353a20696e76616c696420696e7465726661636520696400000000604482015290519081900360640190fd5b7fffffffff00000000000000000000000000000000000000000000000000000000166000908152602081905260409020805460ff19166001179055565b612c8d80620001196000396000f3fe6080604052600436106100fe5760003560e01c80634d08b5441161009557806387d817891161006457806387d817891461042f57806398b9a2dc14610551578063992642e514610584578063a3fbbaae14610599578063cacf1e0e146105cc576100fe565b80634d08b54414610319578063521eb273146103b55780636c9c5270146103ca5780637d28ee55146103fc576100fe565b806315de97ac116100d157806315de97ac146102265780632681f7e4146102a05780633408a937146102d1578063481c6a7514610304576100fe565b806301ffc9a7146101035780630d14f0dd1461014b5780631125f13f146101965780631459457a146101cf575b600080fd5b34801561010f57600080fd5b506101376004803603602081101561012657600080fd5b50356001600160e01b0319166105e1565b604080519115158252519081900360200190f35b34801561015757600080fd5b506101846004803603604081101561016e57600080fd5b506001600160a01b038135169060200135610600565b60408051918252519081900360200190f35b3480156101a257600080fd5b50610184600480360360408110156101b957600080fd5b50803590602001356001600160a01b031661062e565b3480156101db57600080fd5b50610224600480360360a08110156101f257600080fd5b506001600160a01b038135811691602081013582169160408201358116916060810135821691608090910135166107df565b005b6102246004803603608081101561023c57600080fd5b813591602081013591810190606081016040820135600160201b81111561026257600080fd5b82018360208201111561027457600080fd5b803590602001918460018302840111600160201b8311171561029557600080fd5b9193509150356108f5565b3480156102ac57600080fd5b506102b5611007565b604080516001600160a01b039092168252519081900360200190f35b3480156102dd57600080fd5b50610224600480360360208110156102f457600080fd5b50356001600160a01b0316611016565b34801561031057600080fd5b506102b561108d565b34801561032557600080fd5b50610224600480360360c081101561033c57600080fd5b8135916020810135916001600160a01b036040830135169160608101359181019060a081016080820135600160201b81111561037757600080fd5b82018360208201111561038957600080fd5b803590602001918460018302840111600160201b831117156103aa57600080fd5b91935091503561109c565b3480156103c157600080fd5b506102b5611a60565b3480156103d657600080fd5b50610224600480360360408110156103ed57600080fd5b50803590602001351515611a6f565b34801561040857600080fd5b506102246004803603602081101561041f57600080fd5b50356001600160a01b03166122d6565b34801561043b57600080fd5b506104596004803603602081101561045257600080fd5b5035612345565b604051808a600181111561046957fe5b60ff168152602001896001600160a01b03166001600160a01b03168152602001888152602001876001600160a01b03166001600160a01b03168152602001868152602001856001600160a01b03166001600160a01b031681526020018481526020018315151515815260200180602001828103825283818151815260200191508051906020019080838360005b8381101561050e5781810151838201526020016104f6565b50505050905090810190601f16801561053b5780820380516001836020036101000a031916815260200191505b509a505050505050505050505060405180910390f35b34801561055d57600080fd5b506102246004803603602081101561057457600080fd5b50356001600160a01b031661243f565b34801561059057600080fd5b506102b56124ae565b3480156105a557600080fd5b50610224600480360360208110156105bc57600080fd5b50356001600160a01b03166124bd565b3480156105d857600080fd5b5061018461252c565b6001600160e01b03191660009081526020819052604090205460ff1690565b6007602052816000526040600020818154811061061957fe5b90600052602060002001600091509150505481565b6003546000906001600160a01b038381169116141561064e5750816107d9565b6003546060906106689084906001600160a01b0316612533565b600254604080516307c0329d60e21b815260048101888152602482019283528451604483015284519495506001600160a01b0390931693631f00ca74938993879391929091606401906020808601910280838360005b838110156106d65781810151838201526020016106be565b50505050905001935050505060006040518083038186803b1580156106fa57600080fd5b505afa15801561070e573d6000803e3d6000fd5b505050506040513d6000823e601f3d908101601f19168201604052602081101561073757600080fd5b8101908080516040519392919084600160201b82111561075657600080fd5b90830190602082018581111561076b57600080fd5b82518660208202830111600160201b8211171561078757600080fd5b82525081516020918201928201910280838360005b838110156107b457818101518382015260200161079c565b505050509050016040525050506000815181106107cd57fe5b60200260200101519150505b92915050565b600154610100900460ff16806107f857506107f8612767565b80610806575060015460ff16155b6108415760405162461bcd60e51b815260040180806020018281038252602e815260200180612c05602e913960400191505060405180910390fd5b600154610100900460ff1615801561086b576001805460ff1961ff00199091166101001716811790555b61087361276d565b600480546001600160a01b038089166001600160a01b031992831617909255600280548884169083161790556003805487841690831617905560058054868416921691909117905560018054918416620100000262010000600160b01b031990921691909117905580156108ed576001805461ff00191690555b505050505050565b80600080600160029054906101000a90046001600160a01b03166001600160a01b03166322b3cd4e846040518263ffffffff1660e01b81526004018082815260200191505060006040518083038186803b15801561095257600080fd5b505afa158015610966573d6000803e3d6000fd5b505050506040513d6000823e601f3d908101601f1916820160405261016081101561099057600080fd5b815160208301516040808501516060860180519251949693959194939182019284600160201b8211156109c257600080fd5b9083019060208201858111156109d757600080fd5b8251600160201b8111828201881017156109f057600080fd5b82525081516020918201929091019080838360005b83811015610a1d578181015183820152602001610a05565b50505050905090810190601f168015610a4a5780820380516001836020036101000a031916815260200191505b5060405260200180516040519392919084600160201b821115610a6c57600080fd5b908301906020820185811115610a8157600080fd5b8251600160201b811182820188101715610a9a57600080fd5b82525081516020918201929091019080838360005b83811015610ac7578181015183820152602001610aaf565b50505050905090810190601f168015610af45780820380516001836020036101000a031916815260200191505b5060405260200180516040519392919084600160201b821115610b1657600080fd5b908301906020820185811115610b2b57600080fd5b8251600160201b811182820188101715610b4457600080fd5b82525081516020918201929091019080838360005b83811015610b71578181015183820152602001610b59565b50505050905090810190601f168015610b9e5780820380516001836020036101000a031916815260200191505b50604052608001519799509697508896505085159450610bc093505050505750805b610bfb5760405162461bcd60e51b8152600401808060200182810382526030815260200180612b906030913960400191505060405180910390fd5b600254604080516315ab88c960e31b815290516000926001600160a01b03169163ad5c4648916004808301926020929190829003018186803b158015610c4057600080fd5b505afa158015610c54573d6000803e3d6000fd5b505050506040513d6020811015610c6a57600080fd5b5051905034610c798a8361062e565b1115610ccc576040805162461bcd60e51b815260206004820152601c60248201527f504d3a20457374696d6174696f6e2068617320696e6372656173656400000000604482015290519081900360640190fd5b610d1281348b60018b8b8080601f0160208091040260200160405190810160405280939291908181526020018383808284376000920191909152508d92506127ba915050565b6002546003546060916001600160a01b039081169163fb3bdb419134918e91610d3d91889116612533565b600560009054906101000a90046001600160a01b03168e6040518663ffffffff1660e01b81526004018085815260200180602001846001600160a01b03166001600160a01b03168152602001838152602001828103825285818151815260200191508051906020019060200280838360005b83811015610dc7578181015183820152602001610daf565b50505050905001955050505050506000604051808303818588803b158015610dee57600080fd5b505af1158015610e02573d6000803e3d6000fd5b50505050506040513d6000823e601f3d908101601f191682016040526020811015610e2c57600080fd5b8101908080516040519392919084600160201b821115610e4b57600080fd5b908301906020820185811115610e6057600080fd5b82518660208202830111600160201b82111715610e7c57600080fd5b82525081516020918201928201910280838360005b83811015610ea9578181015183820152602001610e91565b50505050905001604052505050905080600081518110610ec557fe5b6020026020010151341115610ffb576000336001600160a01b0316610f0783600081518110610ef057fe5b60200260200101513461297590919063ffffffff16565b604080516000815260208101918290528051909190819081908082805b60208310610f435780518252601f199092019160209182019101610f24565b6001836020036101000a03801982511681845116808217855250505050505090500191505060006040518083038185875af1925050503d8060008114610fa5576040519150601f19603f3d011682016040523d82523d6000602084013e610faa565b606091505b5050905080610ff9576040805162461bcd60e51b815260206004820152601660248201527514134e88115512081d1c985b9cd9995c88199a5b195960521b604482015290519081900360640190fd5b505b50505050505050505050565b6002546001600160a01b031681565b6004546001600160a01b03163314611063576040805162461bcd60e51b815260206004820152601d6024820152600080516020612be5833981519152604482015290519081900360640190fd5b600180546001600160a01b03909216620100000262010000600160b01b0319909216919091179055565b6004546001600160a01b031681565b80600080600160029054906101000a90046001600160a01b03166001600160a01b03166322b3cd4e846040518263ffffffff1660e01b81526004018082815260200191505060006040518083038186803b1580156110f957600080fd5b505afa15801561110d573d6000803e3d6000fd5b505050506040513d6000823e601f3d908101601f1916820160405261016081101561113757600080fd5b815160208301516040808501516060860180519251949693959194939182019284600160201b82111561116957600080fd5b90830190602082018581111561117e57600080fd5b8251600160201b81118282018810171561119757600080fd5b82525081516020918201929091019080838360005b838110156111c45781810151838201526020016111ac565b50505050905090810190601f1680156111f15780820380516001836020036101000a031916815260200191505b5060405260200180516040519392919084600160201b82111561121357600080fd5b90830190602082018581111561122857600080fd5b8251600160201b81118282018810171561124157600080fd5b82525081516020918201929091019080838360005b8381101561126e578181015183820152602001611256565b50505050905090810190601f16801561129b5780820380516001836020036101000a031916815260200191505b5060405260200180516040519392919084600160201b8211156112bd57600080fd5b9083019060208201858111156112d257600080fd5b8251600160201b8111828201881017156112eb57600080fd5b82525081516020918201929091019080838360005b83811015611318578181015183820152602001611300565b50505050905090810190601f1680156113455780820380516001836020036101000a031916815260200191505b5060405260800151979950969750889650508515945061136793505050505750805b6113a25760405162461bcd60e51b8152600401808060200182810382526030815260200180612b906030913960400191505060405180910390fd5b60408051636eb1769f60e11b815233600482015230602482015290518a916001600160a01b038b169163dd62ed3e91604480820192602092909190829003018186803b1580156113f157600080fd5b505afa158015611405573d6000803e3d6000fd5b505050506040513d602081101561141b57600080fd5b50511015611470576040805162461bcd60e51b815260206004820152601760248201527f504d3a20546f6b656e73206e6f7420617070726f766564000000000000000000604482015290519081900360640190fd5b6114b6888a8c60008a8a8080601f0160208091040260200160405190810160405280939291908181526020018383808284376000920191909152508c92506127ba915050565b6003546001600160a01b03898116911614156115f657898914611518576040805162461bcd60e51b815260206004820152601560248201527414134e88105b5bdd5b9d1cc81b9bdd08195c5d585b605a1b604482015290519081900360640190fd5b600554604080516323b872dd60e01b81523360048201526001600160a01b039283166024820152604481018c90529051918a16916323b872dd916064808201926020929091908290030181600087803b15801561157457600080fd5b505af1158015611588573d6000803e3d6000fd5b505050506040513d602081101561159e57600080fd5b50516115f1576040805162461bcd60e51b815260206004820152601a60248201527f504d3a20546f6b656e73207472616e73666572206661696c6564000000000000604482015290519081900360640190fd5b610ffb565b886116018b8a61062e565b1115611654576040805162461bcd60e51b815260206004820152601c60248201527f504d3a20457374696d6174696f6e2068617320696e6372656173656400000000604482015290519081900360640190fd5b604080516323b872dd60e01b8152336004820152306024820152604481018b905290516001600160a01b038a16916323b872dd9160648083019260209291908290030181600087803b1580156116a957600080fd5b505af11580156116bd573d6000803e3d6000fd5b505050506040513d60208110156116d357600080fd5b5051611726576040805162461bcd60e51b815260206004820152601d60248201527f504d3a205472616e73666572206f6620746f6b656e73206661696c6564000000604482015290519081900360640190fd5b6002546040805163095ea7b360e01b81526001600160a01b039283166004820152602481018c90529051918a169163095ea7b3916044808201926020929091908290030181600087803b15801561177c57600080fd5b505af1158015611790573d6000803e3d6000fd5b505050506040513d60208110156117a657600080fd5b50506002546003546060916001600160a01b0390811691638803dbee918e918e916117d3918f9116612533565b600560009054906101000a90046001600160a01b03168d6040518663ffffffff1660e01b81526004018086815260200185815260200180602001846001600160a01b03166001600160a01b03168152602001838152602001828103825285818151815260200191508051906020019060200280838360005b8381101561186357818101518382015260200161184b565b505050509050019650505050505050600060405180830381600087803b15801561188c57600080fd5b505af11580156118a0573d6000803e3d6000fd5b505050506040513d6000823e601f3d908101601f1916820160405260208110156118c957600080fd5b8101908080516040519392919084600160201b8211156118e857600080fd5b9083019060208201858111156118fd57600080fd5b82518660208202830111600160201b8211171561191957600080fd5b82525081516020918201928201910280838360005b8381101561194657818101518382015260200161192e565b505050509050016040525050509050600061197e8260008151811061196757fe5b60200260200101518c61297590919063ffffffff16565b90508015611a52576040805163a9059cbb60e01b81523360048201526024810183905290516001600160a01b038c169163a9059cbb9160448083019260209291908290030181600087803b1580156119d557600080fd5b505af11580156119e9573d6000803e3d6000fd5b505050506040513d60208110156119ff57600080fd5b5051611a52576040805162461bcd60e51b815260206004820152601a60248201527f504d3a20546f6b656e73207472616e73666572206661696c6564000000000000604482015290519081900360640190fd5b505050505050505050505050565b6005546001600160a01b031681565b6004546001600160a01b03163314611abc576040805162461bcd60e51b815260206004820152601d6024820152600080516020612be5833981519152604482015290519081900360640190fd5b600060068381548110611acb57fe5b6000918252602090912060089091020160048101549091506001600160a01b0316611b35576040805162461bcd60e51b815260206004820152601560248201527414134e8814185e5b595b9d081b9bdd08199bdd5b99605a1b604482015290519081900360640190fd5b6001815460ff166001811115611b4757fe5b1415611b845760405162461bcd60e51b8152600401808060200182810382526025815260200180612bc06025913960400191505060405180910390fd5b6003808201549054604080516370a0823160e01b815230600482015290516001600160a01b03909216916370a0823191602480820192602092909190829003018186803b158015611bd457600080fd5b505afa158015611be8573d6000803e3d6000fd5b505050506040513d6020811015611bfe57600080fd5b50511015611c4c576040805162461bcd60e51b8152602060048201526016602482015275504d3a20496e73756666696369656e742066756e647360501b604482015290519081900360640190fd5b805460ff191660011781556040805184815290517f3d2a04f53164bedf9a8a46353305d6b2d2261410406df3b41f99ce6489dc003c916020908290030190a18180611cab5750600354815461010090046001600160a01b039081169116145b15611d805760038054600480840154928401546040805163a9059cbb60e01b81526001600160a01b0395861693810193909352602483019190915251929091169163a9059cbb916044808201926020929091908290030181600087803b158015611d1457600080fd5b505af1158015611d28573d6000803e3d6000fd5b505050506040513d6020811015611d3e57600080fd5b5051611d7b5760405162461bcd60e51b8152600401808060200182810382526025815260200180612c336025913960400191505060405180910390fd5b6122d1565b60028101548154606091611da6916001600160a01b039182169161010090910416612533565b60025460038401546040805163d06ca61f60e01b815260048101838152602482019283528551604483015285519596506000956001600160a01b039095169463d06ca61f949388939091606490910190602080860191028083838c5b83811015611e1a578181015183820152602001611e02565b50505050905001935050505060006040518083038186803b158015611e3e57600080fd5b505afa158015611e52573d6000803e3d6000fd5b505050506040513d6000823e601f3d908101601f191682016040526020811015611e7b57600080fd5b8101908080516040519392919084600160201b821115611e9a57600080fd5b908301906020820185811115611eaf57600080fd5b82518660208202830111600160201b82111715611ecb57600080fd5b82525081516020918201928201910280838360005b83811015611ef8578181015183820152602001611ee0565b50505050905001604052505050600183510381518110611f1457fe5b60209081029190910181015160038054600254918701546040805163095ea7b360e01b81526001600160a01b039485166004820152602481019290925251939550610708420194929091169263095ea7b3926044808401939192918290030181600087803b158015611f8557600080fd5b505af1158015611f99573d6000803e3d6000fd5b505050506040513d6020811015611faf57600080fd5b5050600684015460ff16156121485760025460038501546004808701546040516318cbafe560e01b8152918201838152602483018790526001600160a01b03918216606484018190526084840187905260a060448501908152895160a4860152895193909616956318cbafe5959489948b948a939092909160c4909101906020808801910280838360005b8381101561205257818101518382015260200161203a565b505050509050019650505050505050600060405180830381600087803b15801561207b57600080fd5b505af115801561208f573d6000803e3d6000fd5b505050506040513d6000823e601f3d908101601f1916820160405260208110156120b857600080fd5b8101908080516040519392919084600160201b8211156120d757600080fd5b9083019060208201858111156120ec57600080fd5b82518660208202830111600160201b8211171561210857600080fd5b82525081516020918201928201910280838360005b8381101561213557818101518382015260200161211d565b50505050905001604052505050506108ed565b60025460038501546004808701546040516338ed173960e01b8152918201838152602483018790526001600160a01b03918216606484018190526084840187905260a060448501908152895160a4860152895193909616956338ed1739959489948b948a939092909160c4909101906020808801910280838360005b838110156121dc5781810151838201526020016121c4565b505050509050019650505050505050600060405180830381600087803b15801561220557600080fd5b505af1158015612219573d6000803e3d6000fd5b505050506040513d6000823e601f3d908101601f19168201604052602081101561224257600080fd5b8101908080516040519392919084600160201b82111561226157600080fd5b90830190602082018581111561227657600080fd5b82518660208202830111600160201b8211171561229257600080fd5b82525081516020918201928201910280838360005b838110156122bf5781810151838201526020016122a7565b50505050905001604052505050505050505b505050565b6004546001600160a01b03163314612323576040805162461bcd60e51b815260206004820152601d6024820152600080516020612be5833981519152604482015290519081900360640190fd5b600280546001600160a01b0319166001600160a01b0392909216919091179055565b6006818154811061235257fe5b6000918252602091829020600891909102018054600180830154600280850154600386015460048701546005880154600689015460078a018054604080516101009b8316158c026000190190921698909804601f81018e90048e0282018e0190985287815260ff808c169e5099909a046001600160a01b039081169c989b9681169a959994169792969390911694939290918301828280156124355780601f1061240a57610100808354040283529160200191612435565b820191906000526020600020905b81548152906001019060200180831161241857829003601f168201915b5050505050905089565b6004546001600160a01b0316331461248c576040805162461bcd60e51b815260206004820152601d6024820152600080516020612be5833981519152604482015290519081900360640190fd5b600580546001600160a01b0319166001600160a01b0392909216919091179055565b6003546001600160a01b031681565b6004546001600160a01b0316331461250a576040805162461bcd60e51b815260206004820152601d6024820152600080516020612be5833981519152604482015290519081900360640190fd5b600480546001600160a01b0319166001600160a01b0392909216919091179055565b6006545b90565b60606000600260009054906101000a90046001600160a01b03166001600160a01b031663ad5c46486040518163ffffffff1660e01b815260040160206040518083038186803b15801561258557600080fd5b505afa158015612599573d6000803e3d6000fd5b505050506040513d60208110156125af57600080fd5b505190506001600160a01b0384811690821614806125de5750806001600160a01b0316836001600160a01b0316145b6125e95760036125ec565b60025b60ff1667ffffffffffffffff8111801561260557600080fd5b5060405190808252806020026020018201604052801561262f578160200160208202803683370190505b509150806001600160a01b0316846001600160a01b031614156126ad57838260008151811061265a57fe5b60200260200101906001600160a01b031690816001600160a01b031681525050828260018151811061268857fe5b60200260200101906001600160a01b031690816001600160a01b031681525050612760565b806001600160a01b0316836001600160a01b031614156126d557838260008151811061265a57fe5b83826000815181106126e357fe5b60200260200101906001600160a01b031690816001600160a01b031681525050808260018151811061271157fe5b60200260200101906001600160a01b031690816001600160a01b031681525050828260028151811061273f57fe5b60200260200101906001600160a01b031690816001600160a01b0316815250505b5092915050565b303b1590565b6000612777612ad9565b50604080516020810190915263570ddeb760e01b815260005b60018110156122d1576127b28282600181106127a857fe5b60200201516129be565b600101612790565b60065460408051918252517f581d416ae9dff30c9305c2b35cb09ed5991897ab97804db29ccf92678e9531609181900360200190a13360008181526007602090815260408083206006805482546001808201855593875285872001558251610120810184528581526001600160a01b038d8116958201959095529283018b905260035490931660608301526080820189905260a082019490945260c0810185905286151560e082015261010081018690528154808501835591909252815160089091027ff652222313e28459528d920b65115c16c04f3efc82aaedc97be59f3f377c0d3f01805492939092839160ff19919091169083818111156128ba57fe5b021790555060208281015182546001600160a01b03918216610100908102610100600160a81b03199092169190911784556040850151600185015560608501516002850180549184166001600160a01b03199283161790556080860151600386015560a08601516004860180549190941691161790915560c0840151600584015560e084015160068401805491151560ff19909216919091179055830151805161296a9260078501920190612af7565b505050505050505050565b60006129b783836040518060400160405280601e81526020017f536166654d6174683a207375627472616374696f6e206f766572666c6f770000815250612a42565b9392505050565b6001600160e01b03198082161415612a1d576040805162461bcd60e51b815260206004820152601c60248201527f4552433136353a20696e76616c696420696e7465726661636520696400000000604482015290519081900360640190fd5b6001600160e01b0319166000908152602081905260409020805460ff19166001179055565b60008184841115612ad15760405162461bcd60e51b81526004018080602001828103825283818151815260200191508051906020019080838360005b83811015612a96578181015183820152602001612a7e565b50505050905090810190601f168015612ac35780820380516001836020036101000a031916815260200191505b509250505060405180910390fd5b505050900390565b60405180602001604052806001906020820280368337509192915050565b828054600181600116156101000203166002900490600052602060002090601f016020900481019282601f10612b3857805160ff1916838001178555612b65565b82800160010185558215612b65579182015b82811115612b65578251825591602001919060010190612b4a565b50612b71929150612b75565b5090565b61253091905b80821115612b715760008155600101612b7b56fe504d3a204d65726368616e74206f7267616e697a6174696f6e206e6f7420657869737473206f722064697361626c6564504d3a205061796d656e742068617320616c7265616479206265656e20726566756e646564504d3a2043616c6c6572206973206e6f7420746865206d616e61676572000000496e697469616c697a61626c653a20636f6e747261637420697320616c726561647920696e697469616c697a6564504d3a20556e61626c6520746f207472616e7366657220726566756e6465642066756e6473a2646970667358221220b1e7de508c146dd4dc075056966553cbdf2fab4e74c8b530f4aaa88980e3426c64736f6c63430006060033",
  "compiler": {
    "name": "solc",
    "version": "0.6.6+commit.6c089d02.Emscripten.clang",
    "optimizer": {
      "enabled": true,
      "runs": 200
    },
    "evmVersion": "petersburg"
  }
}