{
  "fileName": "PaymentManager.sol",
  "contractName": "PaymentManager",
  "source": "// SPDX-License-Identifier: GPL-3.0-only;\n\npragma solidity 0.6.6;\n\nimport \"./PaymentManagerInterface.sol\";\nimport \"@windingtree/smart-contracts-libraries/contracts/ERC165/ERC165Removable.sol\";\nimport \"@openzeppelin/contracts/proxy/Initializable.sol\";\nimport \"@openzeppelin/contracts/token/ERC20/IERC20.sol\";\nimport \"@openzeppelin/contracts/math/SafeMath.sol\";\nimport \"@uniswap/v2-periphery/contracts/interfaces/IUniswapV2Router02.sol\";\n\n\n/**\n * @title PaymentManager\n * @dev Payment manager class.\n * Allowing pay in tokens which will be automatically converted\n * to the pre-defined stable coin using Uniswap exchange\n */\ncontract PaymentManager is PaymentManagerInterface, ERC165Removable, Initializable {\n  using SafeMath for uint256;\n\n  enum Status {\n    Paid,\n    Refunded\n  }\n\n  struct Payment {\n    Status status;\n    address tokenIn; // Address of the token paid by payer (WETH address in case of native ETH)\n    uint256 amountIn; // Amount paid by the payer in tokens\n    address tokenOut; // Address of the target token (actually it is a stableCoin)\n    uint256 amountOut; // Amount paid by the payer in target tokens\n    address payer; // Address of the payer\n    bool isEther; // Is payer has paid with ETH\n    string attachment; // Textual attachment (eq: offerId, orderId, or URI)\n  }\n\n  address public manager;\n  IUniswapV2Router02 public uniswap; // Uniswap instance\n  IERC20 public stableCoin; // Stable coin instance\n  address public wallet; // Payments manager account\n  Payment[] public payments; // All payments list\n  mapping(address => uint256[]) public payerPayments; // Mapping of the payer address to his payments\n\n  /**\n   * @dev Throws if called by any account other than the manager.\n   */\n  modifier onlyManager() {\n      require(manager == msg.sender, \"PM: Caller is not the manager\");\n      _;\n  }\n\n  /**\n   * @dev Initializer for upgradeable contracts.\n   * @param _manager The trusted manager of this contract\n   * @param _uniswap Uniswap router instance\n   * @param _stableCoin Base stablecoin token instance\n   * @param _wallet Payments manager account\n   */\n  function initialize(\n    address _manager,\n    IUniswapV2Router02 _uniswap,\n    IERC20 _stableCoin,\n    address _wallet\n  )\n    public\n    initializer\n  {\n    _setInterfaces();\n    manager = _manager;\n    uniswap = _uniswap;\n    stableCoin = _stableCoin;\n    wallet = _wallet;\n  }\n\n  /**\n   * @dev Changes the manager of the contract\n   * @param _manager The manager address\n   */\n  function changeManager (address _manager)\n    external\n    override\n    onlyManager\n  {\n    manager = _manager;\n  }\n\n  /**\n   * @dev Changes the Uniswap router instance\n   * @param _uniswap Uniswap router instance\n   */\n  function changeUniswap (IUniswapV2Router02 _uniswap)\n    external\n    override\n    onlyManager\n  {\n    uniswap = _uniswap;\n  }\n\n  /**\n   * @dev Changes the manager wallet address\n   * @param _wallet Manager wallet address\n   */\n  function changeWallet (address _wallet)\n    external\n    override\n    onlyManager\n  {\n    wallet = _wallet;\n  }\n\n  /**\n   * @dev Calculates the required amount of tokens to be paid\n   * @param amountOut Amount to be paid in stable coins\n   * @param tokenIn The token provided by the payer\n   * @return amount Amount of payers tokens that should be provided for payment\n   */\n  function getAmountIn(\n    uint256 amountOut,\n    address tokenIn\n  )\n    public\n    view\n    virtual\n    override\n    returns (uint256 amount)\n  {\n    address[] memory path = _buildPath(tokenIn, address(stableCoin));\n    amount = uniswap.getAmountsIn(amountOut, path)[0];\n  }\n\n  /**\n   * @dev Make payment with tokens\n   * @param amountOut Amount to be paid in stable coins\n   * @param amountIn Amount to pay in payer tokens\n   * @param tokenIn The token provided by the payer\n   * @param deadline Time after which transaction will be reverted if not succeeded\n   * @param attachment Textual attachment to the payment\n   */\n  function pay(\n    uint256 amountOut,\n    uint256 amountIn,\n    IERC20 tokenIn,\n    uint256 deadline,\n    string calldata attachment\n  )\n    external\n    virtual\n    override\n  {\n    require(\n      tokenIn.allowance(msg.sender, address(this)) >= amountIn,\n      \"PM: Tokens not approved\"\n    );\n    require(\n      getAmountIn(amountOut, address(tokenIn)) <= amountIn,\n      \"PM: Estimation has increased\"\n    );\n    require(\n      tokenIn.transferFrom(msg.sender, address(this), amountIn),\n      \"PM: Transfer of tokens failed\"\n    );\n\n    _registerPayment(\n      address(tokenIn),\n      amountIn,\n      amountOut,\n      false,\n      attachment\n    );\n\n    tokenIn.approve(address(uniswap), amountIn);\n    uint256[] memory amounts = uniswap.swapTokensForExactTokens(\n      amountOut,\n      amountIn,\n      _buildPath(address(tokenIn), address(stableCoin)),\n      wallet,\n      deadline\n    );\n\n    uint256 restTokensIn = amountIn.sub(amounts[0]);\n\n    // Send rest of tokens back\n    if (restTokensIn > 0) {\n      require(\n        tokenIn.transfer(msg.sender, restTokensIn),\n        \"PM: Tokens transfer failed\"\n      );\n    }\n  }\n\n  /**\n   * @dev Make payment with Ether\n   * @param amountOut Amount to be paid in stable coins\n   * @param deadline Time after which transaction will be reverted if not succeeded\n   * @param attachment Textual attachment to the payment\n   */\n  function payETH(\n    uint256 amountOut,\n    uint256 deadline,\n    string calldata attachment\n  )\n    external\n    virtual\n    override\n    payable\n  {\n    address weth = uniswap.WETH();\n\n    require(\n      getAmountIn(amountOut, weth) <= msg.value,\n      \"PM: Estimation has increased\"\n    );\n\n    _registerPayment(\n      weth,\n      msg.value,\n      amountOut,\n      true,\n      attachment\n    );\n\n    uint256[] memory amounts = uniswap.swapETHForExactTokens{value: msg.value}(\n      amountOut,\n      _buildPath(weth, address(stableCoin)),\n      wallet,\n      deadline\n    );\n\n    // Send rest of msg.value back if exists\n    if (msg.value > amounts[0]) {\n      (bool success,) = msg.sender.call{value: msg.value.sub(amounts[0])}(new bytes(0));\n      require(\n        success,\n        \"PM: ETH transfer filed\"\n      );\n    }\n  }\n\n  /**\n   * @dev Make payment refund\n   * @param index Index of the payment\n   * @param refundStableCoin A flag which allows refunding in stable coins\n   */\n  function refund(\n    uint256 index,\n    bool refundStableCoin\n  )\n    external\n    virtual\n    override\n    onlyManager\n  {\n    Payment storage payment = payments[index];\n\n    require(\n      payment.payer != address(0),\n      \"PM: Payment not found\"\n    );\n    require(\n      payment.status != Status.Refunded,\n      \"PM: Payment has already been refunded\"\n    );\n    require(\n      stableCoin.balanceOf(address(this)) >= payment.amountOut,\n      \"PM: Insufficient funds\"\n    );\n\n    payment.status = Status.Refunded;\n    emit Refunded(index);\n\n    if (refundStableCoin) {\n      require(\n        stableCoin.transferFrom(address(this), payment.payer, payment.amountOut),\n        \"PM: Unable to transfer refunded funds\"\n      );\n    } else {\n      address[] memory path = _buildPath(payment.tokenOut, payment.tokenIn);\n      uint256 refundAmountMin = uniswap.getAmountsOut(\n        payment.amountOut,\n        path\n      )[path.length - 1]; // The last path position\n      uint256 deadline = block.timestamp + 1800; // +30 min\n      stableCoin.approve(address(uniswap), payment.amountOut);\n\n      if (payment.isEther) {\n        uniswap.swapExactTokensForETH(\n          payment.amountOut,\n          refundAmountMin,\n          path,\n          payment.payer,\n          deadline\n        );\n      } else {\n        uniswap.swapExactTokensForTokens(\n          payment.amountOut,\n          refundAmountMin,\n          path,\n          payment.payer,\n          deadline\n        );\n      }\n    }\n  }\n\n  /**\n   * @dev Returns total count of payments\n   * @return uint256\n   */\n  function getPaymentsCount()\n    public\n    view\n    virtual\n    override\n    returns (uint256)\n  {\n    return payments.length;\n  }\n\n  /**\n   * @dev Registering of payment and emits an event\n   * @param tokenIn An address of the token to start from\n   * @param amountIn Amount of payers tokens\n   * @param amountOut Amount of stable coins to be paid\n   * @param isEther Is payer pays by the Ether\n   * @param attachment Textual attachment to the payment\n   */\n  function _registerPayment(\n    address tokenIn,\n    uint256 amountIn,\n    uint256 amountOut,\n    bool isEther,\n    string memory attachment\n  ) internal {\n    emit Paid(payments.length);\n    payerPayments[msg.sender].push(payments.length);\n    payments.push(Payment(\n      Status.Paid,\n      tokenIn,\n      amountIn,\n      address(stableCoin),\n      amountOut,\n      msg.sender,\n      isEther,\n      attachment\n    ));\n  }\n\n  /**\n   * @dev Building an exchange path\n   * @param tokenIn An address of the token to start from\n   * @param tokenOut An address of the target token\n   * @return path Exchange path\n   */\n  function _buildPath(\n    address tokenIn,\n    address tokenOut\n  )\n    internal\n    view\n    returns (address[] memory path)\n  {\n    address weth = uniswap.WETH();\n    path = new address[](tokenIn == weth || tokenOut == weth ? 2 : 3);\n\n    if (tokenIn == weth) {\n      path[0] = tokenIn;\n      path[1] = tokenOut;\n    } else if (tokenOut == weth) {\n      path[0] = tokenIn;\n      path[1] = tokenOut;\n    } else {\n      path[0] = tokenIn;\n      path[1] = weth;\n      path[2] = tokenOut;\n    }\n  }\n\n  /**\n   * @dev Set the list of contract interfaces supported\n   */\n  function _setInterfaces() internal {\n    PaymentManagerInterface p;\n    bytes4[1] memory interfaceIds = [\n      // payment interface:\n      p.changeManager.selector ^\n      p.changeUniswap.selector ^\n      p.changeWallet.selector ^\n      p.getAmountIn.selector ^\n      p.pay.selector ^\n      p.payETH.selector ^\n      p.refund.selector\n    ];\n\n    for (uint256 i = 0; i < interfaceIds.length; i++) {\n      _registerInterface(interfaceIds[i]);\n    }\n  }\n}\n",
  "sourcePath": "contracts/PaymentManager.sol",
  "abi": [
    {
      "anonymous": false,
      "inputs": [
        {
          "indexed": false,
          "internalType": "uint256",
          "name": "index",
          "type": "uint256"
        }
      ],
      "name": "Paid",
      "type": "event"
    },
    {
      "anonymous": false,
      "inputs": [
        {
          "indexed": false,
          "internalType": "uint256",
          "name": "index",
          "type": "uint256"
        }
      ],
      "name": "Refunded",
      "type": "event"
    },
    {
      "inputs": [
        {
          "internalType": "address",
          "name": "_manager",
          "type": "address"
        }
      ],
      "name": "changeManager",
      "outputs": [],
      "stateMutability": "nonpayable",
      "type": "function"
    },
    {
      "inputs": [
        {
          "internalType": "contract IUniswapV2Router02",
          "name": "_uniswap",
          "type": "address"
        }
      ],
      "name": "changeUniswap",
      "outputs": [],
      "stateMutability": "nonpayable",
      "type": "function"
    },
    {
      "inputs": [
        {
          "internalType": "address",
          "name": "_wallet",
          "type": "address"
        }
      ],
      "name": "changeWallet",
      "outputs": [],
      "stateMutability": "nonpayable",
      "type": "function"
    },
    {
      "inputs": [
        {
          "internalType": "uint256",
          "name": "amountOut",
          "type": "uint256"
        },
        {
          "internalType": "address",
          "name": "tokenIn",
          "type": "address"
        }
      ],
      "name": "getAmountIn",
      "outputs": [
        {
          "internalType": "uint256",
          "name": "amount",
          "type": "uint256"
        }
      ],
      "stateMutability": "view",
      "type": "function"
    },
    {
      "inputs": [],
      "name": "getPaymentsCount",
      "outputs": [
        {
          "internalType": "uint256",
          "name": "",
          "type": "uint256"
        }
      ],
      "stateMutability": "view",
      "type": "function"
    },
    {
      "inputs": [
        {
          "internalType": "address",
          "name": "_manager",
          "type": "address"
        },
        {
          "internalType": "contract IUniswapV2Router02",
          "name": "_uniswap",
          "type": "address"
        },
        {
          "internalType": "contract IERC20",
          "name": "_stableCoin",
          "type": "address"
        },
        {
          "internalType": "address",
          "name": "_wallet",
          "type": "address"
        }
      ],
      "name": "initialize",
      "outputs": [],
      "stateMutability": "nonpayable",
      "type": "function"
    },
    {
      "inputs": [],
      "name": "manager",
      "outputs": [
        {
          "internalType": "address",
          "name": "",
          "type": "address"
        }
      ],
      "stateMutability": "view",
      "type": "function"
    },
    {
      "inputs": [
        {
          "internalType": "uint256",
          "name": "amountOut",
          "type": "uint256"
        },
        {
          "internalType": "uint256",
          "name": "amountIn",
          "type": "uint256"
        },
        {
          "internalType": "contract IERC20",
          "name": "tokenIn",
          "type": "address"
        },
        {
          "internalType": "uint256",
          "name": "deadline",
          "type": "uint256"
        },
        {
          "internalType": "string",
          "name": "attachment",
          "type": "string"
        }
      ],
      "name": "pay",
      "outputs": [],
      "stateMutability": "nonpayable",
      "type": "function"
    },
    {
      "inputs": [
        {
          "internalType": "uint256",
          "name": "amountOut",
          "type": "uint256"
        },
        {
          "internalType": "uint256",
          "name": "deadline",
          "type": "uint256"
        },
        {
          "internalType": "string",
          "name": "attachment",
          "type": "string"
        }
      ],
      "name": "payETH",
      "outputs": [],
      "stateMutability": "payable",
      "type": "function"
    },
    {
      "inputs": [
        {
          "internalType": "address",
          "name": "",
          "type": "address"
        },
        {
          "internalType": "uint256",
          "name": "",
          "type": "uint256"
        }
      ],
      "name": "payerPayments",
      "outputs": [
        {
          "internalType": "uint256",
          "name": "",
          "type": "uint256"
        }
      ],
      "stateMutability": "view",
      "type": "function"
    },
    {
      "inputs": [
        {
          "internalType": "uint256",
          "name": "",
          "type": "uint256"
        }
      ],
      "name": "payments",
      "outputs": [
        {
          "internalType": "enum PaymentManager.Status",
          "name": "status",
          "type": "uint8"
        },
        {
          "internalType": "address",
          "name": "tokenIn",
          "type": "address"
        },
        {
          "internalType": "uint256",
          "name": "amountIn",
          "type": "uint256"
        },
        {
          "internalType": "address",
          "name": "tokenOut",
          "type": "address"
        },
        {
          "internalType": "uint256",
          "name": "amountOut",
          "type": "uint256"
        },
        {
          "internalType": "address",
          "name": "payer",
          "type": "address"
        },
        {
          "internalType": "bool",
          "name": "isEther",
          "type": "bool"
        },
        {
          "internalType": "string",
          "name": "attachment",
          "type": "string"
        }
      ],
      "stateMutability": "view",
      "type": "function"
    },
    {
      "inputs": [
        {
          "internalType": "uint256",
          "name": "index",
          "type": "uint256"
        },
        {
          "internalType": "bool",
          "name": "refundStableCoin",
          "type": "bool"
        }
      ],
      "name": "refund",
      "outputs": [],
      "stateMutability": "nonpayable",
      "type": "function"
    },
    {
      "inputs": [],
      "name": "stableCoin",
      "outputs": [
        {
          "internalType": "contract IERC20",
          "name": "",
          "type": "address"
        }
      ],
      "stateMutability": "view",
      "type": "function"
    },
    {
      "inputs": [
        {
          "internalType": "bytes4",
          "name": "interfaceId",
          "type": "bytes4"
        }
      ],
      "name": "supportsInterface",
      "outputs": [
        {
          "internalType": "bool",
          "name": "",
          "type": "bool"
        }
      ],
      "stateMutability": "view",
      "type": "function"
    },
    {
      "inputs": [],
      "name": "uniswap",
      "outputs": [
        {
          "internalType": "contract IUniswapV2Router02",
          "name": "",
          "type": "address"
        }
      ],
      "stateMutability": "view",
      "type": "function"
    },
    {
      "inputs": [],
      "name": "wallet",
      "outputs": [
        {
          "internalType": "address",
          "name": "",
          "type": "address"
        }
      ],
      "stateMutability": "view",
      "type": "function"
    }
  ],
  "bytecode": "0x60806040526100367f01ffc9a7000000000000000000000000000000000000000000000000000000006001600160e01b0361003b16565b610109565b7fffffffff0000000000000000000000000000000000000000000000000000000080821614156100cc57604080517f08c379a000000000000000000000000000000000000000000000000000000000815260206004820152601c60248201527f4552433136353a20696e76616c696420696e7465726661636520696400000000604482015290519081900360640190fd5b7fffffffff00000000000000000000000000000000000000000000000000000000166000908152602081905260409020805460ff19166001179055565b6123db806101186000396000f3fe6080604052600436106100f35760003560e01c806387d817891161008a578063b806b1ca11610059578063b806b1ca1461041c578063cacf1e0e146104b8578063f8c8765e146104cd578063fdc928a014610518576100f3565b806387d817891461028657806398b9a2dc146103a1578063992642e5146103d4578063a3fbbaae146103e9576100f3565b8063481c6a75116100c6578063481c6a75146101f5578063521eb2731461020a5780636c9c52701461021f5780637d28ee5514610253576100f3565b806301ffc9a7146100f85780630d14f0dd146101405780631125f13f1461018b5780632681f7e4146101c4575b600080fd5b34801561010457600080fd5b5061012c6004803603602081101561011b57600080fd5b50356001600160e01b031916610592565b604080519115158252519081900360200190f35b34801561014c57600080fd5b506101796004803603604081101561016357600080fd5b506001600160a01b0381351690602001356105b1565b60408051918252519081900360200190f35b34801561019757600080fd5b50610179600480360360408110156101ae57600080fd5b50803590602001356001600160a01b03166105df565b3480156101d057600080fd5b506101d9610772565b604080516001600160a01b039092168252519081900360200190f35b34801561020157600080fd5b506101d9610781565b34801561021657600080fd5b506101d9610796565b34801561022b57600080fd5b506102516004803603604081101561024257600080fd5b508035906020013515156107a5565b005b34801561025f57600080fd5b506102516004803603602081101561027657600080fd5b50356001600160a01b0316611001565b34801561029257600080fd5b506102b0600480360360208110156102a957600080fd5b5035611076565b604051808960018111156102c057fe5b60ff168152602001886001600160a01b03166001600160a01b03168152602001878152602001866001600160a01b03166001600160a01b03168152602001858152602001846001600160a01b03166001600160a01b031681526020018315151515815260200180602001828103825283818151815260200191508051906020019080838360005b8381101561035f578181015183820152602001610347565b50505050905090810190601f16801561038c5780820380516001836020036101000a031916815260200191505b50995050505050505050505060405180910390f35b3480156103ad57600080fd5b50610251600480360360208110156103c457600080fd5b50356001600160a01b0316611168565b3480156103e057600080fd5b506101d96111dd565b3480156103f557600080fd5b506102516004803603602081101561040c57600080fd5b50356001600160a01b03166111ec565b34801561042857600080fd5b50610251600480360360a081101561043f57600080fd5b8135916020810135916001600160a01b036040830135169160608101359181019060a081016080820135600160201b81111561047a57600080fd5b82018360208201111561048c57600080fd5b803590602001918460018302840111600160201b831117156104ad57600080fd5b509092509050611269565b3480156104c457600080fd5b506101796117d1565b3480156104d957600080fd5b50610251600480360360808110156104f057600080fd5b506001600160a01b0381358116916020810135821691604082013581169160600135166117d8565b6102516004803603606081101561052e57600080fd5b813591602081013591810190606081016040820135600160201b81111561055457600080fd5b82018360208201111561056657600080fd5b803590602001918460018302840111600160201b8311171561058757600080fd5b5090925090506118e2565b6001600160e01b03191660009081526020819052604090205460ff1690565b600660205281600052604060002081815481106105ca57fe5b90600052602060002001600091509150505481565b6003546000906060906105fc9084906001600160a01b0316611cd6565b600254604080516307c0329d60e21b815260048101888152602482019283528451604483015284519495506001600160a01b0390931693631f00ca74938993879391929091606401906020808601910280838360005b8381101561066a578181015183820152602001610652565b50505050905001935050505060006040518083038186803b15801561068e57600080fd5b505afa1580156106a2573d6000803e3d6000fd5b505050506040513d6000823e601f3d908101601f1916820160405260208110156106cb57600080fd5b8101908080516040519392919084600160201b8211156106ea57600080fd5b9083019060208201858111156106ff57600080fd5b82518660208202830111600160201b8211171561071b57600080fd5b82525081516020918201928201910280838360005b83811015610748578181015183820152602001610730565b5050505090500160405250505060008151811061076157fe5b602002602001015191505092915050565b6002546001600160a01b031681565b6001546201000090046001600160a01b031681565b6004546001600160a01b031681565b6001546201000090046001600160a01b031633146107f8576040805162461bcd60e51b815260206004820152601d6024820152600080516020612333833981519152604482015290519081900360640190fd5b60006005838154811061080757fe5b6000918252602090912060069091020160048101549091506001600160a01b0316610871576040805162461bcd60e51b815260206004820152601560248201527414134e8814185e5b595b9d081b9bdd08199bdd5b99605a1b604482015290519081900360640190fd5b6001815460ff16600181111561088357fe5b14156108c05760405162461bcd60e51b815260040180806020018281038252602581526020018061230e6025913960400191505060405180910390fd5b6003808201549054604080516370a0823160e01b815230600482015290516001600160a01b03909216916370a0823191602480820192602092909190829003018186803b15801561091057600080fd5b505afa158015610924573d6000803e3d6000fd5b505050506040513d602081101561093a57600080fd5b50511015610988576040805162461bcd60e51b8152602060048201526016602482015275504d3a20496e73756666696369656e742066756e647360501b604482015290519081900360640190fd5b805460ff191660011781556040805184815290517f3d2a04f53164bedf9a8a46353305d6b2d2261410406df3b41f99ce6489dc003c916020908290030190a18115610aa3576003805460048084015492840154604080516323b872dd60e01b815230938101939093526001600160a01b03948516602484015260448301919091525192909116916323b872dd916064808201926020929091908290030181600087803b158015610a3757600080fd5b505af1158015610a4b573d6000803e3d6000fd5b505050506040513d6020811015610a6157600080fd5b5051610a9e5760405162461bcd60e51b81526004018080602001828103825260258152602001806123816025913960400191505060405180910390fd5b610ffc565b60028101548154606091610ac9916001600160a01b039182169161010090910416611cd6565b60025460038401546040805163d06ca61f60e01b815260048101838152602482019283528551604483015285519596506000956001600160a01b039095169463d06ca61f949388939091606490910190602080860191028083838c5b83811015610b3d578181015183820152602001610b25565b50505050905001935050505060006040518083038186803b158015610b6157600080fd5b505afa158015610b75573d6000803e3d6000fd5b505050506040513d6000823e601f3d908101601f191682016040526020811015610b9e57600080fd5b8101908080516040519392919084600160201b821115610bbd57600080fd5b908301906020820185811115610bd257600080fd5b82518660208202830111600160201b82111715610bee57600080fd5b82525081516020918201928201910280838360005b83811015610c1b578181015183820152602001610c03565b50505050905001604052505050600183510381518110610c3757fe5b60209081029190910181015160038054600254918701546040805163095ea7b360e01b81526001600160a01b039485166004820152602481019290925251939550610708420194929091169263095ea7b3926044808401939192918290030181600087803b158015610ca857600080fd5b505af1158015610cbc573d6000803e3d6000fd5b505050506040513d6020811015610cd257600080fd5b50506004840154600160a01b900460ff1615610e725760025460038501546004808701546040516318cbafe560e01b8152918201838152602483018790526001600160a01b03918216606484018190526084840187905260a060448501908152895160a4860152895193909616956318cbafe5959489948b948a939092909160c4909101906020808801910280838360005b83811015610d7c578181015183820152602001610d64565b505050509050019650505050505050600060405180830381600087803b158015610da557600080fd5b505af1158015610db9573d6000803e3d6000fd5b505050506040513d6000823e601f3d908101601f191682016040526020811015610de257600080fd5b8101908080516040519392919084600160201b821115610e0157600080fd5b908301906020820185811115610e1657600080fd5b82518660208202830111600160201b82111715610e3257600080fd5b82525081516020918201928201910280838360005b83811015610e5f578181015183820152602001610e47565b5050505090500160405250505050610ff8565b60025460038501546004808701546040516338ed173960e01b8152918201838152602483018790526001600160a01b03918216606484018190526084840187905260a060448501908152895160a4860152895193909616956338ed1739959489948b948a939092909160c4909101906020808801910280838360005b83811015610f06578181015183820152602001610eee565b505050509050019650505050505050600060405180830381600087803b158015610f2f57600080fd5b505af1158015610f43573d6000803e3d6000fd5b505050506040513d6000823e601f3d908101601f191682016040526020811015610f6c57600080fd5b8101908080516040519392919084600160201b821115610f8b57600080fd5b908301906020820185811115610fa057600080fd5b82518660208202830111600160201b82111715610fbc57600080fd5b82525081516020918201928201910280838360005b83811015610fe9578181015183820152602001610fd1565b50505050905001604052505050505b5050505b505050565b6001546201000090046001600160a01b03163314611054576040805162461bcd60e51b815260206004820152601d6024820152600080516020612333833981519152604482015290519081900360640190fd5b600280546001600160a01b0319166001600160a01b0392909216919091179055565b6005818154811061108357fe5b60009182526020918290206006919091020180546001808301546002808501546003860154600487015460058801805460408051610100998316158a026000190190921696909604601f81018c90048c0282018c0190965285815260ff808a169c50979098046001600160a01b039081169a969994811698939790831696600160a01b9093041694909183018282801561115e5780601f106111335761010080835404028352916020019161115e565b820191906000526020600020905b81548152906001019060200180831161114157829003601f168201915b5050505050905088565b6001546201000090046001600160a01b031633146111bb576040805162461bcd60e51b815260206004820152601d6024820152600080516020612333833981519152604482015290519081900360640190fd5b600480546001600160a01b0319166001600160a01b0392909216919091179055565b6003546001600160a01b031681565b6001546201000090046001600160a01b0316331461123f576040805162461bcd60e51b815260206004820152601d6024820152600080516020612333833981519152604482015290519081900360640190fd5b600180546001600160a01b03909216620100000262010000600160b01b0319909216919091179055565b60408051636eb1769f60e11b8152336004820152306024820152905186916001600160a01b0387169163dd62ed3e91604480820192602092909190829003018186803b1580156112b857600080fd5b505afa1580156112cc573d6000803e3d6000fd5b505050506040513d60208110156112e257600080fd5b50511015611337576040805162461bcd60e51b815260206004820152601760248201527f504d3a20546f6b656e73206e6f7420617070726f766564000000000000000000604482015290519081900360640190fd5b8461134287866105df565b1115611395576040805162461bcd60e51b815260206004820152601c60248201527f504d3a20457374696d6174696f6e2068617320696e6372656173656400000000604482015290519081900360640190fd5b604080516323b872dd60e01b81523360048201523060248201526044810187905290516001600160a01b038616916323b872dd9160648083019260209291908290030181600087803b1580156113ea57600080fd5b505af11580156113fe573d6000803e3d6000fd5b505050506040513d602081101561141457600080fd5b5051611467576040805162461bcd60e51b815260206004820152601d60248201527f504d3a205472616e73666572206f6620746f6b656e73206661696c6564000000604482015290519081900360640190fd5b6114ab848688600086868080601f016020809104026020016040519081016040528093929190818152602001838380828437600092019190915250611f0a92505050565b6002546040805163095ea7b360e01b81526001600160a01b0392831660048201526024810188905290519186169163095ea7b3916044808201926020929091908290030181600087803b15801561150157600080fd5b505af1158015611515573d6000803e3d6000fd5b505050506040513d602081101561152b57600080fd5b50506002546003546060916001600160a01b0390811691638803dbee918a918a91611558918b9116611cd6565b600480546040516001600160e01b031960e088901b168152918201858152602483018590526001600160a01b0390911660648301819052608483018c905260a060448401908152845160a4850152845191938d939260c4909101906020878101910280838360005b838110156115d85781810151838201526020016115c0565b505050509050019650505050505050600060405180830381600087803b15801561160157600080fd5b505af1158015611615573d6000803e3d6000fd5b505050506040513d6000823e601f3d908101601f19168201604052602081101561163e57600080fd5b8101908080516040519392919084600160201b82111561165d57600080fd5b90830190602082018581111561167257600080fd5b82518660208202830111600160201b8211171561168e57600080fd5b82525081516020918201928201910280838360005b838110156116bb5781810151838201526020016116a3565b50505050905001604052505050905060006116f3826000815181106116dc57fe5b6020026020010151886120a090919063ffffffff16565b905080156117c7576040805163a9059cbb60e01b81523360048201526024810183905290516001600160a01b0388169163a9059cbb9160448083019260209291908290030181600087803b15801561174a57600080fd5b505af115801561175e573d6000803e3d6000fd5b505050506040513d602081101561177457600080fd5b50516117c7576040805162461bcd60e51b815260206004820152601a60248201527f504d3a20546f6b656e73207472616e73666572206661696c6564000000000000604482015290519081900360640190fd5b5050505050505050565b6005545b90565b600154610100900460ff16806117f157506117f16120e9565b806117ff575060015460ff16155b61183a5760405162461bcd60e51b815260040180806020018281038252602e815260200180612353602e913960400191505060405180910390fd5b600154610100900460ff16158015611864576001805460ff1961ff00199091166101001716811790555b61186c6120ef565b6001805462010000600160b01b031916620100006001600160a01b038881169190910291909117909155600280546001600160a01b0319908116878416179091556003805482168684161790556004805490911691841691909117905580156118db576001805461ff00191690555b5050505050565b600254604080516315ab88c960e31b815290516000926001600160a01b03169163ad5c4648916004808301926020929190829003018186803b15801561192757600080fd5b505afa15801561193b573d6000803e3d6000fd5b505050506040513d602081101561195157600080fd5b505190503461196086836105df565b11156119b3576040805162461bcd60e51b815260206004820152601c60248201527f504d3a20457374696d6174696f6e2068617320696e6372656173656400000000604482015290519081900360640190fd5b6119f7813487600187878080601f016020809104026020016040519081016040528093929190818152602001838380828437600092019190915250611f0a92505050565b6002546003546060916001600160a01b039081169163fb3bdb419134918a91611a2291889116611cd6565b600480546040516001600160e01b031960e088901b1681529182018481526001600160a01b0390911660448301819052606483018d905260806024840190815284516084850152845191938e939260a4909101906020878101910280838360005b83811015611a9b578181015183820152602001611a83565b50505050905001955050505050506000604051808303818588803b158015611ac257600080fd5b505af1158015611ad6573d6000803e3d6000fd5b50505050506040513d6000823e601f3d908101601f191682016040526020811015611b0057600080fd5b8101908080516040519392919084600160201b821115611b1f57600080fd5b908301906020820185811115611b3457600080fd5b82518660208202830111600160201b82111715611b5057600080fd5b82525081516020918201928201910280838360005b83811015611b7d578181015183820152602001611b65565b50505050905001604052505050905080600081518110611b9957fe5b6020026020010151341115610ff8576000336001600160a01b0316611bdb83600081518110611bc457fe5b6020026020010151346120a090919063ffffffff16565b604080516000815260208101918290528051909190819081908082805b60208310611c175780518252601f199092019160209182019101611bf8565b6001836020036101000a03801982511681845116808217855250505050505090500191505060006040518083038185875af1925050503d8060008114611c79576040519150601f19603f3d011682016040523d82523d6000602084013e611c7e565b606091505b5050905080611ccd576040805162461bcd60e51b815260206004820152601660248201527514134e88115512081d1c985b9cd9995c88199a5b195960521b604482015290519081900360640190fd5b50505050505050565b60606000600260009054906101000a90046001600160a01b03166001600160a01b031663ad5c46486040518163ffffffff1660e01b815260040160206040518083038186803b158015611d2857600080fd5b505afa158015611d3c573d6000803e3d6000fd5b505050506040513d6020811015611d5257600080fd5b505190506001600160a01b038481169082161480611d815750806001600160a01b0316836001600160a01b0316145b611d8c576003611d8f565b60025b60ff1667ffffffffffffffff81118015611da857600080fd5b50604051908082528060200260200182016040528015611dd2578160200160208202803683370190505b509150806001600160a01b0316846001600160a01b03161415611e50578382600081518110611dfd57fe5b60200260200101906001600160a01b031690816001600160a01b0316815250508282600181518110611e2b57fe5b60200260200101906001600160a01b031690816001600160a01b031681525050611f03565b806001600160a01b0316836001600160a01b03161415611e78578382600081518110611dfd57fe5b8382600081518110611e8657fe5b60200260200101906001600160a01b031690816001600160a01b0316815250508082600181518110611eb457fe5b60200260200101906001600160a01b031690816001600160a01b0316815250508282600281518110611ee257fe5b60200260200101906001600160a01b031690816001600160a01b0316815250505b5092915050565b60055460408051918252517f581d416ae9dff30c9305c2b35cb09ed5991897ab97804db29ccf92678e9531609181900360200190a13360008181526006602081815260408084206005805482546001808201855593885285882001558251610100810184528681526001600160a01b038d8116958201959095529283018b905260035490931660608301526080820189905260a082019590955286151560c082015260e081018690528154808601835591909352825191027f036b6384b5eca791c62761152d0c79bb0604c104a5fb6f4eb0703f3154bb3db001805492939092839160ff19909116908381811115611ffe57fe5b02179055506020828101518254610100600160a81b0319166101006001600160a01b03928316021783556040840151600184015560608401516002840180546001600160a01b03199081169284169290921790556080850151600385015560a085015160048501805460c08801519316919093161760ff60a01b1916600160a01b9115159190910217905560e083015180516117c79260058501920190612257565b60006120e283836040518060400160405280601e81526020017f536166654d6174683a207375627472616374696f6e206f766572666c6f77000081525061213c565b9392505050565b303b1590565b60006120f96122d5565b506040805160208101909152633f0e660160e11b815260005b6001811015610ffc5761213482826001811061212a57fe5b60200201516121d3565b600101612112565b600081848411156121cb5760405162461bcd60e51b81526004018080602001828103825283818151815260200191508051906020019080838360005b83811015612190578181015183820152602001612178565b50505050905090810190601f1680156121bd5780820380516001836020036101000a031916815260200191505b509250505060405180910390fd5b505050900390565b6001600160e01b03198082161415612232576040805162461bcd60e51b815260206004820152601c60248201527f4552433136353a20696e76616c696420696e7465726661636520696400000000604482015290519081900360640190fd5b6001600160e01b0319166000908152602081905260409020805460ff19166001179055565b828054600181600116156101000203166002900490600052602060002090601f016020900481019282601f1061229857805160ff19168380011785556122c5565b828001600101855582156122c5579182015b828111156122c55782518255916020019190600101906122aa565b506122d19291506122f3565b5090565b60405180602001604052806001906020820280368337509192915050565b6117d591905b808211156122d157600081556001016122f956fe504d3a205061796d656e742068617320616c7265616479206265656e20726566756e646564504d3a2043616c6c6572206973206e6f7420746865206d616e61676572000000496e697469616c697a61626c653a20636f6e747261637420697320616c726561647920696e697469616c697a6564504d3a20556e61626c6520746f207472616e7366657220726566756e6465642066756e6473a2646970667358221220f325f6103597cf6744f4f68cf1ccef03063f55df993af749b94ee534dc870e7364736f6c63430006060033",
  "compiler": {
    "name": "solc",
    "version": "0.6.6+commit.6c089d02.Emscripten.clang",
    "optimizer": {
      "enabled": true,
      "runs": 200
    },
    "evmVersion": "petersburg"
  }
}